{
  "contracts/USElection.sol": {
    "USElection": {
      "abi": [
        {
          "anonymous": false,
          "inputs": [
            {
              "indexed": false,
              "internalType": "uint256",
              "name": "winner",
              "type": "uint256"
            }
          ],
          "name": "LogElectionEnded",
          "type": "event"
        },
        {
          "anonymous": false,
          "inputs": [
            {
              "indexed": false,
              "internalType": "uint8",
              "name": "winner",
              "type": "uint8"
            },
            {
              "indexed": false,
              "internalType": "uint8",
              "name": "stateSeats",
              "type": "uint8"
            },
            {
              "indexed": false,
              "internalType": "string",
              "name": "state",
              "type": "string"
            }
          ],
          "name": "LogStateResult",
          "type": "event"
        },
        {
          "anonymous": false,
          "inputs": [
            {
              "indexed": true,
              "internalType": "address",
              "name": "previousOwner",
              "type": "address"
            },
            {
              "indexed": true,
              "internalType": "address",
              "name": "newOwner",
              "type": "address"
            }
          ],
          "name": "OwnershipTransferred",
          "type": "event"
        },
        {
          "inputs": [],
          "name": "BIDEN",
          "outputs": [
            {
              "internalType": "uint8",
              "name": "",
              "type": "uint8"
            }
          ],
          "stateMutability": "view",
          "type": "function"
        },
        {
          "inputs": [],
          "name": "TRUMP",
          "outputs": [
            {
              "internalType": "uint8",
              "name": "",
              "type": "uint8"
            }
          ],
          "stateMutability": "view",
          "type": "function"
        },
        {
          "inputs": [],
          "name": "currentLeader",
          "outputs": [
            {
              "internalType": "uint8",
              "name": "",
              "type": "uint8"
            }
          ],
          "stateMutability": "view",
          "type": "function"
        },
        {
          "inputs": [],
          "name": "electionEnded",
          "outputs": [
            {
              "internalType": "bool",
              "name": "",
              "type": "bool"
            }
          ],
          "stateMutability": "view",
          "type": "function"
        },
        {
          "inputs": [],
          "name": "endElection",
          "outputs": [],
          "stateMutability": "nonpayable",
          "type": "function"
        },
        {
          "inputs": [],
          "name": "owner",
          "outputs": [
            {
              "internalType": "address",
              "name": "",
              "type": "address"
            }
          ],
          "stateMutability": "view",
          "type": "function"
        },
        {
          "inputs": [],
          "name": "renounceOwnership",
          "outputs": [],
          "stateMutability": "nonpayable",
          "type": "function"
        },
        {
          "inputs": [
            {
              "internalType": "string",
              "name": "",
              "type": "string"
            }
          ],
          "name": "resultsSubmitted",
          "outputs": [
            {
              "internalType": "bool",
              "name": "",
              "type": "bool"
            }
          ],
          "stateMutability": "view",
          "type": "function"
        },
        {
          "inputs": [
            {
              "internalType": "uint8",
              "name": "",
              "type": "uint8"
            }
          ],
          "name": "seats",
          "outputs": [
            {
              "internalType": "uint8",
              "name": "",
              "type": "uint8"
            }
          ],
          "stateMutability": "view",
          "type": "function"
        },
        {
          "inputs": [
            {
              "components": [
                {
                  "internalType": "string",
                  "name": "name",
                  "type": "string"
                },
                {
                  "internalType": "uint256",
                  "name": "votesBiden",
                  "type": "uint256"
                },
                {
                  "internalType": "uint256",
                  "name": "votesTrump",
                  "type": "uint256"
                },
                {
                  "internalType": "uint8",
                  "name": "stateSeats",
                  "type": "uint8"
                }
              ],
              "internalType": "struct USElection.StateResult",
              "name": "result",
              "type": "tuple"
            }
          ],
          "name": "submitStateResult",
          "outputs": [],
          "stateMutability": "nonpayable",
          "type": "function"
        },
        {
          "inputs": [
            {
              "internalType": "address",
              "name": "newOwner",
              "type": "address"
            }
          ],
          "name": "transferOwnership",
          "outputs": [],
          "stateMutability": "nonpayable",
          "type": "function"
        }
      ],
      "evm": {
        "bytecode": {
          "linkReferences": {},
          "object": "608060405234801561001057600080fd5b5061002d61002261003260201b60201c565b61003a60201b60201c565b6100fe565b600033905090565b60008060009054906101000a900473ffffffffffffffffffffffffffffffffffffffff169050816000806101000a81548173ffffffffffffffffffffffffffffffffffffffff021916908373ffffffffffffffffffffffffffffffffffffffff1602179055508173ffffffffffffffffffffffffffffffffffffffff168173ffffffffffffffffffffffffffffffffffffffff167f8be0079c531659141344cd1fd0a4f28419497f9722a3daafe3b4186f6b6457e060405160405180910390a35050565b611ba68061010d6000396000f3fe608060405234801561001057600080fd5b50600436106100a95760003560e01c8063715018a611610071578063715018a6146101545780638da5cb5b1461015e578063ac4bd53a1461017c578063c94ca9e31461019a578063e494a883146101b8578063f2fde38b146101d4576100a9565b80632d78d8e5146100ae57806337ad98ec146100cc57806359f78468146100fc57806369b36bd414610106578063713d87c514610124575b600080fd5b6100b66101f0565b6040516100c3919061132e565b60405180910390f35b6100e660048036038101906100e191906114a3565b6101f5565b6040516100f39190611507565b60405180910390f35b61010461022b565b005b61010e6104c2565b60405161011b919061132e565b60405180910390f35b61013e6004803603810190610139919061154e565b6104c7565b60405161014b919061132e565b60405180910390f35b61015c6104e7565b005b6101666104fb565b60405161017391906115bc565b60405180910390f35b610184610524565b604051610191919061132e565b60405180910390f35b6101a261088c565b6040516101af9190611507565b60405180910390f35b6101d260048036038101906101cd91906115fb565b61089f565b005b6101ee60048036038101906101e99190611670565b611141565b005b600281565b6002818051602081018201805184825260208301602085012081835280955050505050506000915054906101000a900460ff1681565b6102336111c5565b61025f7ffe71d23701cb92763588e7e6c436b0d8ac3416c0822abd7eac8d6354f50d59b360001b611243565b61028b7f5b46aae46bfa1ce171498d11b6a74cd303da923180038687f6db220410a780d560001b611243565b6102b77f7ca1b1e8b47e96f083622da1d1c2303856a0e29988bc05eab1aca807d0e52aa560001b611243565b6102e37f11d6b3881e5f0c2f20fb1fbe7052f61154eccdc398d915f1d87f8245e09042fb60001b611243565b600060149054906101000a900460ff1615610333576040517f08c379a000000000000000000000000000000000000000000000000000000000815260040161032a906116fa565b60405180910390fd5b61035f7fed9113f76bb5267463a2d7f1b6bc92b22272d471241f42f3707dd86d60b2ccde60001b611243565b61038b7fe727b2e08ec11e118164645003d0e287dd27c4ff9eee6c2c4e8a1af6d470a05d60001b611243565b6103b77fa8ee048e494c3f550a1bcb0574f4d643f1e77e55c5ddbc13fd516e748fb4b85360001b611243565b6103e37f3fa6cad5c21c027de610b641b4f2a40d3985be9ca94cb9feb34632fddb67a84460001b611243565b61040f7f34963e883512b87cb7e547552e305cf448043e4a92a2fa3f982ef86e8b9b4aff60001b611243565b6001600060146101000a81548160ff0219169083151502179055506104567f5286f40ee4683471ea647773db003b2c24e9cdf7120aef3c48f9ed3fd690dce860001b611243565b6104827f1f9485d619b9dbce41991a3455249ab8599074c311540b23b0dc270d38d6474960001b611243565b7faacb23683ec1a0e9b52f9a6264edf58ad322ac62079d65ea7363a2d400f439f46104ab610524565b6040516104b8919061175f565b60405180910390a1565b600181565b60016020528060005260406000206000915054906101000a900460ff1681565b6104ef6111c5565b6104f96000611246565b565b60008060009054906101000a900473ffffffffffffffffffffffffffffffffffffffff16905090565b60006105527f7ba57ad5c47336fb3a89fcf36e3e93fdef66c8aa07bdd88b1d0c2b90a3610de860001b611243565b61057e7f9c33c4253013eb04685f2376fb915bfc1148c615b8990d26150cf86194fd102260001b611243565b6105aa7f6a7073672b62b16aefc299b0fe141113b8132fb1812c85bca0348028e3f49f1d60001b611243565b60016000600260ff1660ff16815260200190815260200160002060009054906101000a900460ff1660ff1660016000600160ff1660ff16815260200190815260200160002060009054906101000a900460ff1660ff161115610693576106327f9e6070ee18a469026843a692112ac7ead5b5f0a0190ee3ae86d26c21cdffc2b260001b611243565b61065e7f38856fd788c59c2e09ab1c2c040704106c4cb30d76ffd42bb0b7ae8472fe253860001b611243565b61068a7ff03fc932b7dfd6b2cef1d4bb1a5a8e478569796aa4cb747a994c6e71e56a75eb60001b611243565b60019050610889565b6106bf7fc8b09a4d5a2ecff98f23f8680ceb856e0538a6ffc68d7e7b25fa5b1e5574acb360001b611243565b6106eb7fcb051e09cac7e192ffeae6c4c7cdfcde4a18ab91f01d789ca1d3ae1b994c1e8b60001b611243565b6107177fac9c9e5cac94a2f7d547d323bb446a880e544f65c5a0ad4b3ce8afd4fc03cfb160001b611243565b60016000600160ff1660ff16815260200190815260200160002060009054906101000a900460ff1660ff1660016000600260ff1660ff16815260200190815260200160002060009054906101000a900460ff1660ff1611156108005761079f7fc373083e8f6cc8c60a3afa15d32dda7db2f8dc0f93658b7b7743305c3699cc6c60001b611243565b6107cb7fca6f56a56ef8b64c1e07525daca35a5f73fbeccaf44cca3f76d4dcea062ac92560001b611243565b6107f77f9ad14a34924ae03d0246f37a7ca20599d454b7dfe9940e4846286e3142a3ad7360001b611243565b60029050610889565b61082c7f76b2260462fac28f36c15f3b63030d8820107ef3329aa73b975af99f40b5de8060001b611243565b6108587f7b79efe4d25057f7c8df091eeadfe112710d247da93c2fdd8f349914cf152e3b60001b611243565b6108847fbfd52e20eafdefc6a3b1b892086f3eea165f5dc761c06bce526e77ceb03acaa360001b611243565b600090505b90565b600060149054906101000a900460ff1681565b6108a76111c5565b6108d37ffe71d23701cb92763588e7e6c436b0d8ac3416c0822abd7eac8d6354f50d59b360001b611243565b6108ff7f5b46aae46bfa1ce171498d11b6a74cd303da923180038687f6db220410a780d560001b611243565b61092b7f7ca1b1e8b47e96f083622da1d1c2303856a0e29988bc05eab1aca807d0e52aa560001b611243565b6109577f11d6b3881e5f0c2f20fb1fbe7052f61154eccdc398d915f1d87f8245e09042fb60001b611243565b600060149054906101000a900460ff16156109a7576040517f08c379a000000000000000000000000000000000000000000000000000000000815260040161099e906116fa565b60405180910390fd5b6109d37fed9113f76bb5267463a2d7f1b6bc92b22272d471241f42f3707dd86d60b2ccde60001b611243565b6109ff7fe727b2e08ec11e118164645003d0e287dd27c4ff9eee6c2c4e8a1af6d470a05d60001b611243565b610a2b7f60cf9081c83e0652bfa9060099204f8f21b3dfeb1a2b0399ee195892e188ee1760001b611243565b610a577f5fbec4cb4e052e9a1d707cf57b5e9f0f65956ded8df1667467c7a55d5af1c17860001b611243565b610a837fddb324d0f3edb670fcb29e4cd2f409e0b2f5a49ffa5039f27fa83e654b68b8cb60001b611243565b610aaf7fc103226b89640d36141bac250b81a1813852aeac3097cd36fa6a5460353ac81e60001b611243565b6000816060016020810190610ac4919061154e565b60ff1611610b07576040517f08c379a0000000000000000000000000000000000000000000000000000000008152600401610afe906117c6565b60405180910390fd5b610b337f368d8956b5d89044bd3f7426ff3ad712b057d1c79b5e942fea2a78b41ec1a5b960001b611243565b610b5f7f32d94da6b741ff941a7ddea0e179e3df9263f4d928c9acf2ed0f1c9cd2ad5f5360001b611243565b610b8b7f9ff12767cb7ce3ae7e8f740bf4e5ed16b7da908c62a867b147a075c41972cecb60001b611243565b610bb77f8570eb4d226a3332666812bfa64f71681f69d47c9365b8452bac6ae5dcaafe4760001b611243565b806040013581602001351415610c02576040517f08c379a0000000000000000000000000000000000000000000000000000000008152600401610bf990611832565b60405180910390fd5b610c2e7fc265e3c6512fcee29ad8dde988ae460b09424bdccead5ce8f1d615cb8ee9d46760001b611243565b610c5a7f603f8a0b07f78d808fd2f7471dae2f973f8a3076020fb79956787627579db6f760001b611243565b610c867ffbbdfc33e3385d31e8e1526b89c539f204a7affd97ccbb780a2dc5698e6d6d7560001b611243565b610cb27fca0f8acf65cac643ff68a086331f2cff8b37006b16ca8c82dad51199b3ca18de60001b611243565b6002818060000190610cc49190611861565b604051610cd29291906118f4565b908152602001604051809103902060009054906101000a900460ff1615610d2e576040517f08c379a0000000000000000000000000000000000000000000000000000000008152600401610d259061197f565b60405180910390fd5b610d5a7fd79b07ff5b877f566ddd2d5207048a78298ab2ca530641454b4981eae5b8c02f60001b611243565b610d867fda6643e716b4839accba57d9e4bca9a1d5eca2b79213c8969f8a481ec59e81b460001b611243565b610db27fcc8b49f23df26b659ce0eaabb885c4b88a55fab87667135d21cd7ecc48f161ff60001b611243565b6000610de07f98961ddb9911f7912c504b29681515a5c0a7875274554bb826bf4b2f742e4f7360001b611243565b610e0c7f10b79ae77b8d5d00285b10051b25e828b35304c46c605854fa977405a8073e5e60001b611243565b816040013582602001351115610ea957610e487f9e5fa28c1d4148ebb914906004f6d1edaa374126b8563b1d1d315dc20fdd902c60001b611243565b610e747f7b81eaf09de99f156da3f51ab967f1054ae3ee4c2494c2ca5ccdcdeb1858adaf60001b611243565b610ea07f66f725d6d3b07cba9506d91e9785b9092ae47cbaa771d7a5ad94e477c9638ce660001b611243565b60019050610f32565b610ed57f845faa46ae387399bfa4fae71fbbeb3dfd2239cc51d6ef5f44e7180fbe10e34b60001b611243565b610f017fc2681118af7c3e33eae1f1608d6c324a67975d24b7b9bbb7a5f7a16d837e9b0e60001b611243565b610f2d7ff110d83d2e479fa4c9003c5779c8692d024fcd929aec3c637d47ac0a9801e02260001b611243565b600290505b610f5e7f933b60c8fd5f0458a91946af7dce7dc585224b158ee77cfcd07f67d59f770e5a60001b611243565b610f8a7ffa13362a55903478e9ceabe3a962680aebd287570acb827df54383fffaed1f5160001b611243565b816060016020810190610f9d919061154e565b600160008360ff1660ff16815260200190815260200160002060008282829054906101000a900460ff16610fd191906119ce565b92506101000a81548160ff021916908360ff1602179055506110157fc58b8c4d756e1723bbdc506a2bc6bca3dd260b268dc12a569872b7c9c10c3bed60001b611243565b6110417f369a1e65279662eab8d4f9c0aad29342c3f186c4c098ca55c006c6b5e4c2c31a60001b611243565b600160028380600001906110559190611861565b6040516110639291906118f4565b908152602001604051809103902060006101000a81548160ff0219169083151502179055506110b47f24b4517eb442d1ac4eb6422f09e3f051998b59f5c4b9ee8830c9cae78014e3f960001b611243565b6110e07f7eaedca310f16641a6f7f63ddd285729c42a3473979c65b1e1a77d1b1cfc7ee060001b611243565b7fa2e71fe38f1afa3762cf9d2ea7bb6a4d272a90fd6f9392f3acedd3b542046b4681836060016020810190611115919061154e565b8480600001906111259190611861565b6040516111359493929190611a32565b60405180910390a15050565b6111496111c5565b600073ffffffffffffffffffffffffffffffffffffffff168173ffffffffffffffffffffffffffffffffffffffff1614156111b9576040517f08c379a00000000000000000000000000000000000000000000000000000000081526004016111b090611ae4565b60405180910390fd5b6111c281611246565b50565b6111cd61130a565b73ffffffffffffffffffffffffffffffffffffffff166111eb6104fb565b73ffffffffffffffffffffffffffffffffffffffff1614611241576040517f08c379a000000000000000000000000000000000000000000000000000000000815260040161123890611b50565b60405180910390fd5b565b50565b60008060009054906101000a900473ffffffffffffffffffffffffffffffffffffffff169050816000806101000a81548173ffffffffffffffffffffffffffffffffffffffff021916908373ffffffffffffffffffffffffffffffffffffffff1602179055508173ffffffffffffffffffffffffffffffffffffffff168173ffffffffffffffffffffffffffffffffffffffff167f8be0079c531659141344cd1fd0a4f28419497f9722a3daafe3b4186f6b6457e060405160405180910390a35050565b600033905090565b600060ff82169050919050565b61132881611312565b82525050565b6000602082019050611343600083018461131f565b92915050565b6000604051905090565b600080fd5b600080fd5b600080fd5b600080fd5b6000601f19601f8301169050919050565b7f4e487b7100000000000000000000000000000000000000000000000000000000600052604160045260246000fd5b6113b082611367565b810181811067ffffffffffffffff821117156113cf576113ce611378565b5b80604052505050565b60006113e2611349565b90506113ee82826113a7565b919050565b600067ffffffffffffffff82111561140e5761140d611378565b5b61141782611367565b9050602081019050919050565b82818337600083830152505050565b6000611446611441846113f3565b6113d8565b90508281526020810184848401111561146257611461611362565b5b61146d848285611424565b509392505050565b600082601f83011261148a5761148961135d565b5b813561149a848260208601611433565b91505092915050565b6000602082840312156114b9576114b8611353565b5b600082013567ffffffffffffffff8111156114d7576114d6611358565b5b6114e384828501611475565b91505092915050565b60008115159050919050565b611501816114ec565b82525050565b600060208201905061151c60008301846114f8565b92915050565b61152b81611312565b811461153657600080fd5b50565b60008135905061154881611522565b92915050565b60006020828403121561156457611563611353565b5b600061157284828501611539565b91505092915050565b600073ffffffffffffffffffffffffffffffffffffffff82169050919050565b60006115a68261157b565b9050919050565b6115b68161159b565b82525050565b60006020820190506115d160008301846115ad565b92915050565b600080fd5b6000608082840312156115f2576115f16115d7565b5b81905092915050565b60006020828403121561161157611610611353565b5b600082013567ffffffffffffffff81111561162f5761162e611358565b5b61163b848285016115dc565b91505092915050565b61164d8161159b565b811461165857600080fd5b50565b60008135905061166a81611644565b92915050565b60006020828403121561168657611685611353565b5b60006116948482850161165b565b91505092915050565b600082825260208201905092915050565b7f54686520656c656374696f6e2068617320656e64656420616c72656164790000600082015250565b60006116e4601e8361169d565b91506116ef826116ae565b602082019050919050565b60006020820190508181036000830152611713816116d7565b9050919050565b6000819050919050565b6000819050919050565b600061174961174461173f84611312565b611724565b61171a565b9050919050565b6117598161172e565b82525050565b60006020820190506117746000830184611750565b92915050565b7f537461746573206d7573742068617665206174206c6561737420312073656174600082015250565b60006117b060208361169d565b91506117bb8261177a565b602082019050919050565b600060208201905081810360008301526117df816117a3565b9050919050565b7f54686572652063616e6e6f742062652061207469650000000000000000000000600082015250565b600061181c60158361169d565b9150611827826117e6565b602082019050919050565b6000602082019050818103600083015261184b8161180f565b9050919050565b600080fd5b600080fd5b600080fd5b6000808335600160200384360303811261187e5761187d611852565b5b80840192508235915067ffffffffffffffff8211156118a05761189f611857565b5b6020830192506001820236038313156118bc576118bb61185c565b5b509250929050565b600081905092915050565b60006118db83856118c4565b93506118e8838584611424565b82840190509392505050565b60006119018284866118cf565b91508190509392505050565b7f5468697320737461746520726573756c742077617320616c726561647920737560008201527f626d697474656421000000000000000000000000000000000000000000000000602082015250565b600061196960288361169d565b91506119748261190d565b604082019050919050565b600060208201905081810360008301526119988161195c565b9050919050565b7f4e487b7100000000000000000000000000000000000000000000000000000000600052601160045260246000fd5b60006119d982611312565b91506119e483611312565b92508260ff038211156119fa576119f961199f565b5b828201905092915050565b6000611a11838561169d565b9350611a1e838584611424565b611a2783611367565b840190509392505050565b6000606082019050611a47600083018761131f565b611a54602083018661131f565b8181036040830152611a67818486611a05565b905095945050505050565b7f4f776e61626c653a206e6577206f776e657220697320746865207a65726f206160008201527f6464726573730000000000000000000000000000000000000000000000000000602082015250565b6000611ace60268361169d565b9150611ad982611a72565b604082019050919050565b60006020820190508181036000830152611afd81611ac1565b9050919050565b7f4f776e61626c653a2063616c6c6572206973206e6f7420746865206f776e6572600082015250565b6000611b3a60208361169d565b9150611b4582611b04565b602082019050919050565b60006020820190508181036000830152611b6981611b2d565b905091905056fea26469706673582212206cdac8a85831af4483a6de0fae797dc2a855c3d3b3e949eacc07da15bf39875264736f6c63430008090033",
          "opcodes": "PUSH1 0x80 PUSH1 0x40 MSTORE CALLVALUE DUP1 ISZERO PUSH2 0x10 JUMPI PUSH1 0x0 DUP1 REVERT JUMPDEST POP PUSH2 0x2D PUSH2 0x22 PUSH2 0x32 PUSH1 0x20 SHL PUSH1 0x20 SHR JUMP JUMPDEST PUSH2 0x3A PUSH1 0x20 SHL PUSH1 0x20 SHR JUMP JUMPDEST PUSH2 0xFE JUMP JUMPDEST PUSH1 0x0 CALLER SWAP1 POP SWAP1 JUMP JUMPDEST PUSH1 0x0 DUP1 PUSH1 0x0 SWAP1 SLOAD SWAP1 PUSH2 0x100 EXP SWAP1 DIV PUSH20 0xFFFFFFFFFFFFFFFFFFFFFFFFFFFFFFFFFFFFFFFF AND SWAP1 POP DUP2 PUSH1 0x0 DUP1 PUSH2 0x100 EXP DUP2 SLOAD DUP2 PUSH20 0xFFFFFFFFFFFFFFFFFFFFFFFFFFFFFFFFFFFFFFFF MUL NOT AND SWAP1 DUP4 PUSH20 0xFFFFFFFFFFFFFFFFFFFFFFFFFFFFFFFFFFFFFFFF AND MUL OR SWAP1 SSTORE POP DUP2 PUSH20 0xFFFFFFFFFFFFFFFFFFFFFFFFFFFFFFFFFFFFFFFF AND DUP2 PUSH20 0xFFFFFFFFFFFFFFFFFFFFFFFFFFFFFFFFFFFFFFFF AND PUSH32 0x8BE0079C531659141344CD1FD0A4F28419497F9722A3DAAFE3B4186F6B6457E0 PUSH1 0x40 MLOAD PUSH1 0x40 MLOAD DUP1 SWAP2 SUB SWAP1 LOG3 POP POP JUMP JUMPDEST PUSH2 0x1BA6 DUP1 PUSH2 0x10D PUSH1 0x0 CODECOPY PUSH1 0x0 RETURN INVALID PUSH1 0x80 PUSH1 0x40 MSTORE CALLVALUE DUP1 ISZERO PUSH2 0x10 JUMPI PUSH1 0x0 DUP1 REVERT JUMPDEST POP PUSH1 0x4 CALLDATASIZE LT PUSH2 0xA9 JUMPI PUSH1 0x0 CALLDATALOAD PUSH1 0xE0 SHR DUP1 PUSH4 0x715018A6 GT PUSH2 0x71 JUMPI DUP1 PUSH4 0x715018A6 EQ PUSH2 0x154 JUMPI DUP1 PUSH4 0x8DA5CB5B EQ PUSH2 0x15E JUMPI DUP1 PUSH4 0xAC4BD53A EQ PUSH2 0x17C JUMPI DUP1 PUSH4 0xC94CA9E3 EQ PUSH2 0x19A JUMPI DUP1 PUSH4 0xE494A883 EQ PUSH2 0x1B8 JUMPI DUP1 PUSH4 0xF2FDE38B EQ PUSH2 0x1D4 JUMPI PUSH2 0xA9 JUMP JUMPDEST DUP1 PUSH4 0x2D78D8E5 EQ PUSH2 0xAE JUMPI DUP1 PUSH4 0x37AD98EC EQ PUSH2 0xCC JUMPI DUP1 PUSH4 0x59F78468 EQ PUSH2 0xFC JUMPI DUP1 PUSH4 0x69B36BD4 EQ PUSH2 0x106 JUMPI DUP1 PUSH4 0x713D87C5 EQ PUSH2 0x124 JUMPI JUMPDEST PUSH1 0x0 DUP1 REVERT JUMPDEST PUSH2 0xB6 PUSH2 0x1F0 JUMP JUMPDEST PUSH1 0x40 MLOAD PUSH2 0xC3 SWAP2 SWAP1 PUSH2 0x132E JUMP JUMPDEST PUSH1 0x40 MLOAD DUP1 SWAP2 SUB SWAP1 RETURN JUMPDEST PUSH2 0xE6 PUSH1 0x4 DUP1 CALLDATASIZE SUB DUP2 ADD SWAP1 PUSH2 0xE1 SWAP2 SWAP1 PUSH2 0x14A3 JUMP JUMPDEST PUSH2 0x1F5 JUMP JUMPDEST PUSH1 0x40 MLOAD PUSH2 0xF3 SWAP2 SWAP1 PUSH2 0x1507 JUMP JUMPDEST PUSH1 0x40 MLOAD DUP1 SWAP2 SUB SWAP1 RETURN JUMPDEST PUSH2 0x104 PUSH2 0x22B JUMP JUMPDEST STOP JUMPDEST PUSH2 0x10E PUSH2 0x4C2 JUMP JUMPDEST PUSH1 0x40 MLOAD PUSH2 0x11B SWAP2 SWAP1 PUSH2 0x132E JUMP JUMPDEST PUSH1 0x40 MLOAD DUP1 SWAP2 SUB SWAP1 RETURN JUMPDEST PUSH2 0x13E PUSH1 0x4 DUP1 CALLDATASIZE SUB DUP2 ADD SWAP1 PUSH2 0x139 SWAP2 SWAP1 PUSH2 0x154E JUMP JUMPDEST PUSH2 0x4C7 JUMP JUMPDEST PUSH1 0x40 MLOAD PUSH2 0x14B SWAP2 SWAP1 PUSH2 0x132E JUMP JUMPDEST PUSH1 0x40 MLOAD DUP1 SWAP2 SUB SWAP1 RETURN JUMPDEST PUSH2 0x15C PUSH2 0x4E7 JUMP JUMPDEST STOP JUMPDEST PUSH2 0x166 PUSH2 0x4FB JUMP JUMPDEST PUSH1 0x40 MLOAD PUSH2 0x173 SWAP2 SWAP1 PUSH2 0x15BC JUMP JUMPDEST PUSH1 0x40 MLOAD DUP1 SWAP2 SUB SWAP1 RETURN JUMPDEST PUSH2 0x184 PUSH2 0x524 JUMP JUMPDEST PUSH1 0x40 MLOAD PUSH2 0x191 SWAP2 SWAP1 PUSH2 0x132E JUMP JUMPDEST PUSH1 0x40 MLOAD DUP1 SWAP2 SUB SWAP1 RETURN JUMPDEST PUSH2 0x1A2 PUSH2 0x88C JUMP JUMPDEST PUSH1 0x40 MLOAD PUSH2 0x1AF SWAP2 SWAP1 PUSH2 0x1507 JUMP JUMPDEST PUSH1 0x40 MLOAD DUP1 SWAP2 SUB SWAP1 RETURN JUMPDEST PUSH2 0x1D2 PUSH1 0x4 DUP1 CALLDATASIZE SUB DUP2 ADD SWAP1 PUSH2 0x1CD SWAP2 SWAP1 PUSH2 0x15FB JUMP JUMPDEST PUSH2 0x89F JUMP JUMPDEST STOP JUMPDEST PUSH2 0x1EE PUSH1 0x4 DUP1 CALLDATASIZE SUB DUP2 ADD SWAP1 PUSH2 0x1E9 SWAP2 SWAP1 PUSH2 0x1670 JUMP JUMPDEST PUSH2 0x1141 JUMP JUMPDEST STOP JUMPDEST PUSH1 0x2 DUP2 JUMP JUMPDEST PUSH1 0x2 DUP2 DUP1 MLOAD PUSH1 0x20 DUP2 ADD DUP3 ADD DUP1 MLOAD DUP5 DUP3 MSTORE PUSH1 0x20 DUP4 ADD PUSH1 0x20 DUP6 ADD KECCAK256 DUP2 DUP4 MSTORE DUP1 SWAP6 POP POP POP POP POP POP PUSH1 0x0 SWAP2 POP SLOAD SWAP1 PUSH2 0x100 EXP SWAP1 DIV PUSH1 0xFF AND DUP2 JUMP JUMPDEST PUSH2 0x233 PUSH2 0x11C5 JUMP JUMPDEST PUSH2 0x25F PUSH32 0xFE71D23701CB92763588E7E6C436B0D8AC3416C0822ABD7EAC8D6354F50D59B3 PUSH1 0x0 SHL PUSH2 0x1243 JUMP JUMPDEST PUSH2 0x28B PUSH32 0x5B46AAE46BFA1CE171498D11B6A74CD303DA923180038687F6DB220410A780D5 PUSH1 0x0 SHL PUSH2 0x1243 JUMP JUMPDEST PUSH2 0x2B7 PUSH32 0x7CA1B1E8B47E96F083622DA1D1C2303856A0E29988BC05EAB1ACA807D0E52AA5 PUSH1 0x0 SHL PUSH2 0x1243 JUMP JUMPDEST PUSH2 0x2E3 PUSH32 0x11D6B3881E5F0C2F20FB1FBE7052F61154ECCDC398D915F1D87F8245E09042FB PUSH1 0x0 SHL PUSH2 0x1243 JUMP JUMPDEST PUSH1 0x0 PUSH1 0x14 SWAP1 SLOAD SWAP1 PUSH2 0x100 EXP SWAP1 DIV PUSH1 0xFF AND ISZERO PUSH2 0x333 JUMPI PUSH1 0x40 MLOAD PUSH32 0x8C379A000000000000000000000000000000000000000000000000000000000 DUP2 MSTORE PUSH1 0x4 ADD PUSH2 0x32A SWAP1 PUSH2 0x16FA JUMP JUMPDEST PUSH1 0x40 MLOAD DUP1 SWAP2 SUB SWAP1 REVERT JUMPDEST PUSH2 0x35F PUSH32 0xED9113F76BB5267463A2D7F1B6BC92B22272D471241F42F3707DD86D60B2CCDE PUSH1 0x0 SHL PUSH2 0x1243 JUMP JUMPDEST PUSH2 0x38B PUSH32 0xE727B2E08EC11E118164645003D0E287DD27C4FF9EEE6C2C4E8A1AF6D470A05D PUSH1 0x0 SHL PUSH2 0x1243 JUMP JUMPDEST PUSH2 0x3B7 PUSH32 0xA8EE048E494C3F550A1BCB0574F4D643F1E77E55C5DDBC13FD516E748FB4B853 PUSH1 0x0 SHL PUSH2 0x1243 JUMP JUMPDEST PUSH2 0x3E3 PUSH32 0x3FA6CAD5C21C027DE610B641B4F2A40D3985BE9CA94CB9FEB34632FDDB67A844 PUSH1 0x0 SHL PUSH2 0x1243 JUMP JUMPDEST PUSH2 0x40F PUSH32 0x34963E883512B87CB7E547552E305CF448043E4A92A2FA3F982EF86E8B9B4AFF PUSH1 0x0 SHL PUSH2 0x1243 JUMP JUMPDEST PUSH1 0x1 PUSH1 0x0 PUSH1 0x14 PUSH2 0x100 EXP DUP2 SLOAD DUP2 PUSH1 0xFF MUL NOT AND SWAP1 DUP4 ISZERO ISZERO MUL OR SWAP1 SSTORE POP PUSH2 0x456 PUSH32 0x5286F40EE4683471EA647773DB003B2C24E9CDF7120AEF3C48F9ED3FD690DCE8 PUSH1 0x0 SHL PUSH2 0x1243 JUMP JUMPDEST PUSH2 0x482 PUSH32 0x1F9485D619B9DBCE41991A3455249AB8599074C311540B23B0DC270D38D64749 PUSH1 0x0 SHL PUSH2 0x1243 JUMP JUMPDEST PUSH32 0xAACB23683EC1A0E9B52F9A6264EDF58AD322AC62079D65EA7363A2D400F439F4 PUSH2 0x4AB PUSH2 0x524 JUMP JUMPDEST PUSH1 0x40 MLOAD PUSH2 0x4B8 SWAP2 SWAP1 PUSH2 0x175F JUMP JUMPDEST PUSH1 0x40 MLOAD DUP1 SWAP2 SUB SWAP1 LOG1 JUMP JUMPDEST PUSH1 0x1 DUP2 JUMP JUMPDEST PUSH1 0x1 PUSH1 0x20 MSTORE DUP1 PUSH1 0x0 MSTORE PUSH1 0x40 PUSH1 0x0 KECCAK256 PUSH1 0x0 SWAP2 POP SLOAD SWAP1 PUSH2 0x100 EXP SWAP1 DIV PUSH1 0xFF AND DUP2 JUMP JUMPDEST PUSH2 0x4EF PUSH2 0x11C5 JUMP JUMPDEST PUSH2 0x4F9 PUSH1 0x0 PUSH2 0x1246 JUMP JUMPDEST JUMP JUMPDEST PUSH1 0x0 DUP1 PUSH1 0x0 SWAP1 SLOAD SWAP1 PUSH2 0x100 EXP SWAP1 DIV PUSH20 0xFFFFFFFFFFFFFFFFFFFFFFFFFFFFFFFFFFFFFFFF AND SWAP1 POP SWAP1 JUMP JUMPDEST PUSH1 0x0 PUSH2 0x552 PUSH32 0x7BA57AD5C47336FB3A89FCF36E3E93FDEF66C8AA07BDD88B1D0C2B90A3610DE8 PUSH1 0x0 SHL PUSH2 0x1243 JUMP JUMPDEST PUSH2 0x57E PUSH32 0x9C33C4253013EB04685F2376FB915BFC1148C615B8990D26150CF86194FD1022 PUSH1 0x0 SHL PUSH2 0x1243 JUMP JUMPDEST PUSH2 0x5AA PUSH32 0x6A7073672B62B16AEFC299B0FE141113B8132FB1812C85BCA0348028E3F49F1D PUSH1 0x0 SHL PUSH2 0x1243 JUMP JUMPDEST PUSH1 0x1 PUSH1 0x0 PUSH1 0x2 PUSH1 0xFF AND PUSH1 0xFF AND DUP2 MSTORE PUSH1 0x20 ADD SWAP1 DUP2 MSTORE PUSH1 0x20 ADD PUSH1 0x0 KECCAK256 PUSH1 0x0 SWAP1 SLOAD SWAP1 PUSH2 0x100 EXP SWAP1 DIV PUSH1 0xFF AND PUSH1 0xFF AND PUSH1 0x1 PUSH1 0x0 PUSH1 0x1 PUSH1 0xFF AND PUSH1 0xFF AND DUP2 MSTORE PUSH1 0x20 ADD SWAP1 DUP2 MSTORE PUSH1 0x20 ADD PUSH1 0x0 KECCAK256 PUSH1 0x0 SWAP1 SLOAD SWAP1 PUSH2 0x100 EXP SWAP1 DIV PUSH1 0xFF AND PUSH1 0xFF AND GT ISZERO PUSH2 0x693 JUMPI PUSH2 0x632 PUSH32 0x9E6070EE18A469026843A692112AC7EAD5B5F0A0190EE3AE86D26C21CDFFC2B2 PUSH1 0x0 SHL PUSH2 0x1243 JUMP JUMPDEST PUSH2 0x65E PUSH32 0x38856FD788C59C2E09AB1C2C040704106C4CB30D76FFD42BB0B7AE8472FE2538 PUSH1 0x0 SHL PUSH2 0x1243 JUMP JUMPDEST PUSH2 0x68A PUSH32 0xF03FC932B7DFD6B2CEF1D4BB1A5A8E478569796AA4CB747A994C6E71E56A75EB PUSH1 0x0 SHL PUSH2 0x1243 JUMP JUMPDEST PUSH1 0x1 SWAP1 POP PUSH2 0x889 JUMP JUMPDEST PUSH2 0x6BF PUSH32 0xC8B09A4D5A2ECFF98F23F8680CEB856E0538A6FFC68D7E7B25FA5B1E5574ACB3 PUSH1 0x0 SHL PUSH2 0x1243 JUMP JUMPDEST PUSH2 0x6EB PUSH32 0xCB051E09CAC7E192FFEAE6C4C7CDFCDE4A18AB91F01D789CA1D3AE1B994C1E8B PUSH1 0x0 SHL PUSH2 0x1243 JUMP JUMPDEST PUSH2 0x717 PUSH32 0xAC9C9E5CAC94A2F7D547D323BB446A880E544F65C5A0AD4B3CE8AFD4FC03CFB1 PUSH1 0x0 SHL PUSH2 0x1243 JUMP JUMPDEST PUSH1 0x1 PUSH1 0x0 PUSH1 0x1 PUSH1 0xFF AND PUSH1 0xFF AND DUP2 MSTORE PUSH1 0x20 ADD SWAP1 DUP2 MSTORE PUSH1 0x20 ADD PUSH1 0x0 KECCAK256 PUSH1 0x0 SWAP1 SLOAD SWAP1 PUSH2 0x100 EXP SWAP1 DIV PUSH1 0xFF AND PUSH1 0xFF AND PUSH1 0x1 PUSH1 0x0 PUSH1 0x2 PUSH1 0xFF AND PUSH1 0xFF AND DUP2 MSTORE PUSH1 0x20 ADD SWAP1 DUP2 MSTORE PUSH1 0x20 ADD PUSH1 0x0 KECCAK256 PUSH1 0x0 SWAP1 SLOAD SWAP1 PUSH2 0x100 EXP SWAP1 DIV PUSH1 0xFF AND PUSH1 0xFF AND GT ISZERO PUSH2 0x800 JUMPI PUSH2 0x79F PUSH32 0xC373083E8F6CC8C60A3AFA15D32DDA7DB2F8DC0F93658B7B7743305C3699CC6C PUSH1 0x0 SHL PUSH2 0x1243 JUMP JUMPDEST PUSH2 0x7CB PUSH32 0xCA6F56A56EF8B64C1E07525DACA35A5F73FBECCAF44CCA3F76D4DCEA062AC925 PUSH1 0x0 SHL PUSH2 0x1243 JUMP JUMPDEST PUSH2 0x7F7 PUSH32 0x9AD14A34924AE03D0246F37A7CA20599D454B7DFE9940E4846286E3142A3AD73 PUSH1 0x0 SHL PUSH2 0x1243 JUMP JUMPDEST PUSH1 0x2 SWAP1 POP PUSH2 0x889 JUMP JUMPDEST PUSH2 0x82C PUSH32 0x76B2260462FAC28F36C15F3B63030D8820107EF3329AA73B975AF99F40B5DE80 PUSH1 0x0 SHL PUSH2 0x1243 JUMP JUMPDEST PUSH2 0x858 PUSH32 0x7B79EFE4D25057F7C8DF091EEADFE112710D247DA93C2FDD8F349914CF152E3B PUSH1 0x0 SHL PUSH2 0x1243 JUMP JUMPDEST PUSH2 0x884 PUSH32 0xBFD52E20EAFDEFC6A3B1B892086F3EEA165F5DC761C06BCE526E77CEB03ACAA3 PUSH1 0x0 SHL PUSH2 0x1243 JUMP JUMPDEST PUSH1 0x0 SWAP1 POP JUMPDEST SWAP1 JUMP JUMPDEST PUSH1 0x0 PUSH1 0x14 SWAP1 SLOAD SWAP1 PUSH2 0x100 EXP SWAP1 DIV PUSH1 0xFF AND DUP2 JUMP JUMPDEST PUSH2 0x8A7 PUSH2 0x11C5 JUMP JUMPDEST PUSH2 0x8D3 PUSH32 0xFE71D23701CB92763588E7E6C436B0D8AC3416C0822ABD7EAC8D6354F50D59B3 PUSH1 0x0 SHL PUSH2 0x1243 JUMP JUMPDEST PUSH2 0x8FF PUSH32 0x5B46AAE46BFA1CE171498D11B6A74CD303DA923180038687F6DB220410A780D5 PUSH1 0x0 SHL PUSH2 0x1243 JUMP JUMPDEST PUSH2 0x92B PUSH32 0x7CA1B1E8B47E96F083622DA1D1C2303856A0E29988BC05EAB1ACA807D0E52AA5 PUSH1 0x0 SHL PUSH2 0x1243 JUMP JUMPDEST PUSH2 0x957 PUSH32 0x11D6B3881E5F0C2F20FB1FBE7052F61154ECCDC398D915F1D87F8245E09042FB PUSH1 0x0 SHL PUSH2 0x1243 JUMP JUMPDEST PUSH1 0x0 PUSH1 0x14 SWAP1 SLOAD SWAP1 PUSH2 0x100 EXP SWAP1 DIV PUSH1 0xFF AND ISZERO PUSH2 0x9A7 JUMPI PUSH1 0x40 MLOAD PUSH32 0x8C379A000000000000000000000000000000000000000000000000000000000 DUP2 MSTORE PUSH1 0x4 ADD PUSH2 0x99E SWAP1 PUSH2 0x16FA JUMP JUMPDEST PUSH1 0x40 MLOAD DUP1 SWAP2 SUB SWAP1 REVERT JUMPDEST PUSH2 0x9D3 PUSH32 0xED9113F76BB5267463A2D7F1B6BC92B22272D471241F42F3707DD86D60B2CCDE PUSH1 0x0 SHL PUSH2 0x1243 JUMP JUMPDEST PUSH2 0x9FF PUSH32 0xE727B2E08EC11E118164645003D0E287DD27C4FF9EEE6C2C4E8A1AF6D470A05D PUSH1 0x0 SHL PUSH2 0x1243 JUMP JUMPDEST PUSH2 0xA2B PUSH32 0x60CF9081C83E0652BFA9060099204F8F21B3DFEB1A2B0399EE195892E188EE17 PUSH1 0x0 SHL PUSH2 0x1243 JUMP JUMPDEST PUSH2 0xA57 PUSH32 0x5FBEC4CB4E052E9A1D707CF57B5E9F0F65956DED8DF1667467C7A55D5AF1C178 PUSH1 0x0 SHL PUSH2 0x1243 JUMP JUMPDEST PUSH2 0xA83 PUSH32 0xDDB324D0F3EDB670FCB29E4CD2F409E0B2F5A49FFA5039F27FA83E654B68B8CB PUSH1 0x0 SHL PUSH2 0x1243 JUMP JUMPDEST PUSH2 0xAAF PUSH32 0xC103226B89640D36141BAC250B81A1813852AEAC3097CD36FA6A5460353AC81E PUSH1 0x0 SHL PUSH2 0x1243 JUMP JUMPDEST PUSH1 0x0 DUP2 PUSH1 0x60 ADD PUSH1 0x20 DUP2 ADD SWAP1 PUSH2 0xAC4 SWAP2 SWAP1 PUSH2 0x154E JUMP JUMPDEST PUSH1 0xFF AND GT PUSH2 0xB07 JUMPI PUSH1 0x40 MLOAD PUSH32 0x8C379A000000000000000000000000000000000000000000000000000000000 DUP2 MSTORE PUSH1 0x4 ADD PUSH2 0xAFE SWAP1 PUSH2 0x17C6 JUMP JUMPDEST PUSH1 0x40 MLOAD DUP1 SWAP2 SUB SWAP1 REVERT JUMPDEST PUSH2 0xB33 PUSH32 0x368D8956B5D89044BD3F7426FF3AD712B057D1C79B5E942FEA2A78B41EC1A5B9 PUSH1 0x0 SHL PUSH2 0x1243 JUMP JUMPDEST PUSH2 0xB5F PUSH32 0x32D94DA6B741FF941A7DDEA0E179E3DF9263F4D928C9ACF2ED0F1C9CD2AD5F53 PUSH1 0x0 SHL PUSH2 0x1243 JUMP JUMPDEST PUSH2 0xB8B PUSH32 0x9FF12767CB7CE3AE7E8F740BF4E5ED16B7DA908C62A867B147A075C41972CECB PUSH1 0x0 SHL PUSH2 0x1243 JUMP JUMPDEST PUSH2 0xBB7 PUSH32 0x8570EB4D226A3332666812BFA64F71681F69D47C9365B8452BAC6AE5DCAAFE47 PUSH1 0x0 SHL PUSH2 0x1243 JUMP JUMPDEST DUP1 PUSH1 0x40 ADD CALLDATALOAD DUP2 PUSH1 0x20 ADD CALLDATALOAD EQ ISZERO PUSH2 0xC02 JUMPI PUSH1 0x40 MLOAD PUSH32 0x8C379A000000000000000000000000000000000000000000000000000000000 DUP2 MSTORE PUSH1 0x4 ADD PUSH2 0xBF9 SWAP1 PUSH2 0x1832 JUMP JUMPDEST PUSH1 0x40 MLOAD DUP1 SWAP2 SUB SWAP1 REVERT JUMPDEST PUSH2 0xC2E PUSH32 0xC265E3C6512FCEE29AD8DDE988AE460B09424BDCCEAD5CE8F1D615CB8EE9D467 PUSH1 0x0 SHL PUSH2 0x1243 JUMP JUMPDEST PUSH2 0xC5A PUSH32 0x603F8A0B07F78D808FD2F7471DAE2F973F8A3076020FB79956787627579DB6F7 PUSH1 0x0 SHL PUSH2 0x1243 JUMP JUMPDEST PUSH2 0xC86 PUSH32 0xFBBDFC33E3385D31E8E1526B89C539F204A7AFFD97CCBB780A2DC5698E6D6D75 PUSH1 0x0 SHL PUSH2 0x1243 JUMP JUMPDEST PUSH2 0xCB2 PUSH32 0xCA0F8ACF65CAC643FF68A086331F2CFF8B37006B16CA8C82DAD51199B3CA18DE PUSH1 0x0 SHL PUSH2 0x1243 JUMP JUMPDEST PUSH1 0x2 DUP2 DUP1 PUSH1 0x0 ADD SWAP1 PUSH2 0xCC4 SWAP2 SWAP1 PUSH2 0x1861 JUMP JUMPDEST PUSH1 0x40 MLOAD PUSH2 0xCD2 SWAP3 SWAP2 SWAP1 PUSH2 0x18F4 JUMP JUMPDEST SWAP1 DUP2 MSTORE PUSH1 0x20 ADD PUSH1 0x40 MLOAD DUP1 SWAP2 SUB SWAP1 KECCAK256 PUSH1 0x0 SWAP1 SLOAD SWAP1 PUSH2 0x100 EXP SWAP1 DIV PUSH1 0xFF AND ISZERO PUSH2 0xD2E JUMPI PUSH1 0x40 MLOAD PUSH32 0x8C379A000000000000000000000000000000000000000000000000000000000 DUP2 MSTORE PUSH1 0x4 ADD PUSH2 0xD25 SWAP1 PUSH2 0x197F JUMP JUMPDEST PUSH1 0x40 MLOAD DUP1 SWAP2 SUB SWAP1 REVERT JUMPDEST PUSH2 0xD5A PUSH32 0xD79B07FF5B877F566DDD2D5207048A78298AB2CA530641454B4981EAE5B8C02F PUSH1 0x0 SHL PUSH2 0x1243 JUMP JUMPDEST PUSH2 0xD86 PUSH32 0xDA6643E716B4839ACCBA57D9E4BCA9A1D5ECA2B79213C8969F8A481EC59E81B4 PUSH1 0x0 SHL PUSH2 0x1243 JUMP JUMPDEST PUSH2 0xDB2 PUSH32 0xCC8B49F23DF26B659CE0EAABB885C4B88A55FAB87667135D21CD7ECC48F161FF PUSH1 0x0 SHL PUSH2 0x1243 JUMP JUMPDEST PUSH1 0x0 PUSH2 0xDE0 PUSH32 0x98961DDB9911F7912C504B29681515A5C0A7875274554BB826BF4B2F742E4F73 PUSH1 0x0 SHL PUSH2 0x1243 JUMP JUMPDEST PUSH2 0xE0C PUSH32 0x10B79AE77B8D5D00285B10051B25E828B35304C46C605854FA977405A8073E5E PUSH1 0x0 SHL PUSH2 0x1243 JUMP JUMPDEST DUP2 PUSH1 0x40 ADD CALLDATALOAD DUP3 PUSH1 0x20 ADD CALLDATALOAD GT ISZERO PUSH2 0xEA9 JUMPI PUSH2 0xE48 PUSH32 0x9E5FA28C1D4148EBB914906004F6D1EDAA374126B8563B1D1D315DC20FDD902C PUSH1 0x0 SHL PUSH2 0x1243 JUMP JUMPDEST PUSH2 0xE74 PUSH32 0x7B81EAF09DE99F156DA3F51AB967F1054AE3EE4C2494C2CA5CCDCDEB1858ADAF PUSH1 0x0 SHL PUSH2 0x1243 JUMP JUMPDEST PUSH2 0xEA0 PUSH32 0x66F725D6D3B07CBA9506D91E9785B9092AE47CBAA771D7A5AD94E477C9638CE6 PUSH1 0x0 SHL PUSH2 0x1243 JUMP JUMPDEST PUSH1 0x1 SWAP1 POP PUSH2 0xF32 JUMP JUMPDEST PUSH2 0xED5 PUSH32 0x845FAA46AE387399BFA4FAE71FBBEB3DFD2239CC51D6EF5F44E7180FBE10E34B PUSH1 0x0 SHL PUSH2 0x1243 JUMP JUMPDEST PUSH2 0xF01 PUSH32 0xC2681118AF7C3E33EAE1F1608D6C324A67975D24B7B9BBB7A5F7A16D837E9B0E PUSH1 0x0 SHL PUSH2 0x1243 JUMP JUMPDEST PUSH2 0xF2D PUSH32 0xF110D83D2E479FA4C9003C5779C8692D024FCD929AEC3C637D47AC0A9801E022 PUSH1 0x0 SHL PUSH2 0x1243 JUMP JUMPDEST PUSH1 0x2 SWAP1 POP JUMPDEST PUSH2 0xF5E PUSH32 0x933B60C8FD5F0458A91946AF7DCE7DC585224B158EE77CFCD07F67D59F770E5A PUSH1 0x0 SHL PUSH2 0x1243 JUMP JUMPDEST PUSH2 0xF8A PUSH32 0xFA13362A55903478E9CEABE3A962680AEBD287570ACB827DF54383FFFAED1F51 PUSH1 0x0 SHL PUSH2 0x1243 JUMP JUMPDEST DUP2 PUSH1 0x60 ADD PUSH1 0x20 DUP2 ADD SWAP1 PUSH2 0xF9D SWAP2 SWAP1 PUSH2 0x154E JUMP JUMPDEST PUSH1 0x1 PUSH1 0x0 DUP4 PUSH1 0xFF AND PUSH1 0xFF AND DUP2 MSTORE PUSH1 0x20 ADD SWAP1 DUP2 MSTORE PUSH1 0x20 ADD PUSH1 0x0 KECCAK256 PUSH1 0x0 DUP3 DUP3 DUP3 SWAP1 SLOAD SWAP1 PUSH2 0x100 EXP SWAP1 DIV PUSH1 0xFF AND PUSH2 0xFD1 SWAP2 SWAP1 PUSH2 0x19CE JUMP JUMPDEST SWAP3 POP PUSH2 0x100 EXP DUP2 SLOAD DUP2 PUSH1 0xFF MUL NOT AND SWAP1 DUP4 PUSH1 0xFF AND MUL OR SWAP1 SSTORE POP PUSH2 0x1015 PUSH32 0xC58B8C4D756E1723BBDC506A2BC6BCA3DD260B268DC12A569872B7C9C10C3BED PUSH1 0x0 SHL PUSH2 0x1243 JUMP JUMPDEST PUSH2 0x1041 PUSH32 0x369A1E65279662EAB8D4F9C0AAD29342C3F186C4C098CA55C006C6B5E4C2C31A PUSH1 0x0 SHL PUSH2 0x1243 JUMP JUMPDEST PUSH1 0x1 PUSH1 0x2 DUP4 DUP1 PUSH1 0x0 ADD SWAP1 PUSH2 0x1055 SWAP2 SWAP1 PUSH2 0x1861 JUMP JUMPDEST PUSH1 0x40 MLOAD PUSH2 0x1063 SWAP3 SWAP2 SWAP1 PUSH2 0x18F4 JUMP JUMPDEST SWAP1 DUP2 MSTORE PUSH1 0x20 ADD PUSH1 0x40 MLOAD DUP1 SWAP2 SUB SWAP1 KECCAK256 PUSH1 0x0 PUSH2 0x100 EXP DUP2 SLOAD DUP2 PUSH1 0xFF MUL NOT AND SWAP1 DUP4 ISZERO ISZERO MUL OR SWAP1 SSTORE POP PUSH2 0x10B4 PUSH32 0x24B4517EB442D1AC4EB6422F09E3F051998B59F5C4B9EE8830C9CAE78014E3F9 PUSH1 0x0 SHL PUSH2 0x1243 JUMP JUMPDEST PUSH2 0x10E0 PUSH32 0x7EAEDCA310F16641A6F7F63DDD285729C42A3473979C65B1E1A77D1B1CFC7EE0 PUSH1 0x0 SHL PUSH2 0x1243 JUMP JUMPDEST PUSH32 0xA2E71FE38F1AFA3762CF9D2EA7BB6A4D272A90FD6F9392F3ACEDD3B542046B46 DUP2 DUP4 PUSH1 0x60 ADD PUSH1 0x20 DUP2 ADD SWAP1 PUSH2 0x1115 SWAP2 SWAP1 PUSH2 0x154E JUMP JUMPDEST DUP5 DUP1 PUSH1 0x0 ADD SWAP1 PUSH2 0x1125 SWAP2 SWAP1 PUSH2 0x1861 JUMP JUMPDEST PUSH1 0x40 MLOAD PUSH2 0x1135 SWAP5 SWAP4 SWAP3 SWAP2 SWAP1 PUSH2 0x1A32 JUMP JUMPDEST PUSH1 0x40 MLOAD DUP1 SWAP2 SUB SWAP1 LOG1 POP POP JUMP JUMPDEST PUSH2 0x1149 PUSH2 0x11C5 JUMP JUMPDEST PUSH1 0x0 PUSH20 0xFFFFFFFFFFFFFFFFFFFFFFFFFFFFFFFFFFFFFFFF AND DUP2 PUSH20 0xFFFFFFFFFFFFFFFFFFFFFFFFFFFFFFFFFFFFFFFF AND EQ ISZERO PUSH2 0x11B9 JUMPI PUSH1 0x40 MLOAD PUSH32 0x8C379A000000000000000000000000000000000000000000000000000000000 DUP2 MSTORE PUSH1 0x4 ADD PUSH2 0x11B0 SWAP1 PUSH2 0x1AE4 JUMP JUMPDEST PUSH1 0x40 MLOAD DUP1 SWAP2 SUB SWAP1 REVERT JUMPDEST PUSH2 0x11C2 DUP2 PUSH2 0x1246 JUMP JUMPDEST POP JUMP JUMPDEST PUSH2 0x11CD PUSH2 0x130A JUMP JUMPDEST PUSH20 0xFFFFFFFFFFFFFFFFFFFFFFFFFFFFFFFFFFFFFFFF AND PUSH2 0x11EB PUSH2 0x4FB JUMP JUMPDEST PUSH20 0xFFFFFFFFFFFFFFFFFFFFFFFFFFFFFFFFFFFFFFFF AND EQ PUSH2 0x1241 JUMPI PUSH1 0x40 MLOAD PUSH32 0x8C379A000000000000000000000000000000000000000000000000000000000 DUP2 MSTORE PUSH1 0x4 ADD PUSH2 0x1238 SWAP1 PUSH2 0x1B50 JUMP JUMPDEST PUSH1 0x40 MLOAD DUP1 SWAP2 SUB SWAP1 REVERT JUMPDEST JUMP JUMPDEST POP JUMP JUMPDEST PUSH1 0x0 DUP1 PUSH1 0x0 SWAP1 SLOAD SWAP1 PUSH2 0x100 EXP SWAP1 DIV PUSH20 0xFFFFFFFFFFFFFFFFFFFFFFFFFFFFFFFFFFFFFFFF AND SWAP1 POP DUP2 PUSH1 0x0 DUP1 PUSH2 0x100 EXP DUP2 SLOAD DUP2 PUSH20 0xFFFFFFFFFFFFFFFFFFFFFFFFFFFFFFFFFFFFFFFF MUL NOT AND SWAP1 DUP4 PUSH20 0xFFFFFFFFFFFFFFFFFFFFFFFFFFFFFFFFFFFFFFFF AND MUL OR SWAP1 SSTORE POP DUP2 PUSH20 0xFFFFFFFFFFFFFFFFFFFFFFFFFFFFFFFFFFFFFFFF AND DUP2 PUSH20 0xFFFFFFFFFFFFFFFFFFFFFFFFFFFFFFFFFFFFFFFF AND PUSH32 0x8BE0079C531659141344CD1FD0A4F28419497F9722A3DAAFE3B4186F6B6457E0 PUSH1 0x40 MLOAD PUSH1 0x40 MLOAD DUP1 SWAP2 SUB SWAP1 LOG3 POP POP JUMP JUMPDEST PUSH1 0x0 CALLER SWAP1 POP SWAP1 JUMP JUMPDEST PUSH1 0x0 PUSH1 0xFF DUP3 AND SWAP1 POP SWAP2 SWAP1 POP JUMP JUMPDEST PUSH2 0x1328 DUP2 PUSH2 0x1312 JUMP JUMPDEST DUP3 MSTORE POP POP JUMP JUMPDEST PUSH1 0x0 PUSH1 0x20 DUP3 ADD SWAP1 POP PUSH2 0x1343 PUSH1 0x0 DUP4 ADD DUP5 PUSH2 0x131F JUMP JUMPDEST SWAP3 SWAP2 POP POP JUMP JUMPDEST PUSH1 0x0 PUSH1 0x40 MLOAD SWAP1 POP SWAP1 JUMP JUMPDEST PUSH1 0x0 DUP1 REVERT JUMPDEST PUSH1 0x0 DUP1 REVERT JUMPDEST PUSH1 0x0 DUP1 REVERT JUMPDEST PUSH1 0x0 DUP1 REVERT JUMPDEST PUSH1 0x0 PUSH1 0x1F NOT PUSH1 0x1F DUP4 ADD AND SWAP1 POP SWAP2 SWAP1 POP JUMP JUMPDEST PUSH32 0x4E487B7100000000000000000000000000000000000000000000000000000000 PUSH1 0x0 MSTORE PUSH1 0x41 PUSH1 0x4 MSTORE PUSH1 0x24 PUSH1 0x0 REVERT JUMPDEST PUSH2 0x13B0 DUP3 PUSH2 0x1367 JUMP JUMPDEST DUP2 ADD DUP2 DUP2 LT PUSH8 0xFFFFFFFFFFFFFFFF DUP3 GT OR ISZERO PUSH2 0x13CF JUMPI PUSH2 0x13CE PUSH2 0x1378 JUMP JUMPDEST JUMPDEST DUP1 PUSH1 0x40 MSTORE POP POP POP JUMP JUMPDEST PUSH1 0x0 PUSH2 0x13E2 PUSH2 0x1349 JUMP JUMPDEST SWAP1 POP PUSH2 0x13EE DUP3 DUP3 PUSH2 0x13A7 JUMP JUMPDEST SWAP2 SWAP1 POP JUMP JUMPDEST PUSH1 0x0 PUSH8 0xFFFFFFFFFFFFFFFF DUP3 GT ISZERO PUSH2 0x140E JUMPI PUSH2 0x140D PUSH2 0x1378 JUMP JUMPDEST JUMPDEST PUSH2 0x1417 DUP3 PUSH2 0x1367 JUMP JUMPDEST SWAP1 POP PUSH1 0x20 DUP2 ADD SWAP1 POP SWAP2 SWAP1 POP JUMP JUMPDEST DUP3 DUP2 DUP4 CALLDATACOPY PUSH1 0x0 DUP4 DUP4 ADD MSTORE POP POP POP JUMP JUMPDEST PUSH1 0x0 PUSH2 0x1446 PUSH2 0x1441 DUP5 PUSH2 0x13F3 JUMP JUMPDEST PUSH2 0x13D8 JUMP JUMPDEST SWAP1 POP DUP3 DUP2 MSTORE PUSH1 0x20 DUP2 ADD DUP5 DUP5 DUP5 ADD GT ISZERO PUSH2 0x1462 JUMPI PUSH2 0x1461 PUSH2 0x1362 JUMP JUMPDEST JUMPDEST PUSH2 0x146D DUP5 DUP3 DUP6 PUSH2 0x1424 JUMP JUMPDEST POP SWAP4 SWAP3 POP POP POP JUMP JUMPDEST PUSH1 0x0 DUP3 PUSH1 0x1F DUP4 ADD SLT PUSH2 0x148A JUMPI PUSH2 0x1489 PUSH2 0x135D JUMP JUMPDEST JUMPDEST DUP2 CALLDATALOAD PUSH2 0x149A DUP5 DUP3 PUSH1 0x20 DUP7 ADD PUSH2 0x1433 JUMP JUMPDEST SWAP2 POP POP SWAP3 SWAP2 POP POP JUMP JUMPDEST PUSH1 0x0 PUSH1 0x20 DUP3 DUP5 SUB SLT ISZERO PUSH2 0x14B9 JUMPI PUSH2 0x14B8 PUSH2 0x1353 JUMP JUMPDEST JUMPDEST PUSH1 0x0 DUP3 ADD CALLDATALOAD PUSH8 0xFFFFFFFFFFFFFFFF DUP2 GT ISZERO PUSH2 0x14D7 JUMPI PUSH2 0x14D6 PUSH2 0x1358 JUMP JUMPDEST JUMPDEST PUSH2 0x14E3 DUP5 DUP3 DUP6 ADD PUSH2 0x1475 JUMP JUMPDEST SWAP2 POP POP SWAP3 SWAP2 POP POP JUMP JUMPDEST PUSH1 0x0 DUP2 ISZERO ISZERO SWAP1 POP SWAP2 SWAP1 POP JUMP JUMPDEST PUSH2 0x1501 DUP2 PUSH2 0x14EC JUMP JUMPDEST DUP3 MSTORE POP POP JUMP JUMPDEST PUSH1 0x0 PUSH1 0x20 DUP3 ADD SWAP1 POP PUSH2 0x151C PUSH1 0x0 DUP4 ADD DUP5 PUSH2 0x14F8 JUMP JUMPDEST SWAP3 SWAP2 POP POP JUMP JUMPDEST PUSH2 0x152B DUP2 PUSH2 0x1312 JUMP JUMPDEST DUP2 EQ PUSH2 0x1536 JUMPI PUSH1 0x0 DUP1 REVERT JUMPDEST POP JUMP JUMPDEST PUSH1 0x0 DUP2 CALLDATALOAD SWAP1 POP PUSH2 0x1548 DUP2 PUSH2 0x1522 JUMP JUMPDEST SWAP3 SWAP2 POP POP JUMP JUMPDEST PUSH1 0x0 PUSH1 0x20 DUP3 DUP5 SUB SLT ISZERO PUSH2 0x1564 JUMPI PUSH2 0x1563 PUSH2 0x1353 JUMP JUMPDEST JUMPDEST PUSH1 0x0 PUSH2 0x1572 DUP5 DUP3 DUP6 ADD PUSH2 0x1539 JUMP JUMPDEST SWAP2 POP POP SWAP3 SWAP2 POP POP JUMP JUMPDEST PUSH1 0x0 PUSH20 0xFFFFFFFFFFFFFFFFFFFFFFFFFFFFFFFFFFFFFFFF DUP3 AND SWAP1 POP SWAP2 SWAP1 POP JUMP JUMPDEST PUSH1 0x0 PUSH2 0x15A6 DUP3 PUSH2 0x157B JUMP JUMPDEST SWAP1 POP SWAP2 SWAP1 POP JUMP JUMPDEST PUSH2 0x15B6 DUP2 PUSH2 0x159B JUMP JUMPDEST DUP3 MSTORE POP POP JUMP JUMPDEST PUSH1 0x0 PUSH1 0x20 DUP3 ADD SWAP1 POP PUSH2 0x15D1 PUSH1 0x0 DUP4 ADD DUP5 PUSH2 0x15AD JUMP JUMPDEST SWAP3 SWAP2 POP POP JUMP JUMPDEST PUSH1 0x0 DUP1 REVERT JUMPDEST PUSH1 0x0 PUSH1 0x80 DUP3 DUP5 SUB SLT ISZERO PUSH2 0x15F2 JUMPI PUSH2 0x15F1 PUSH2 0x15D7 JUMP JUMPDEST JUMPDEST DUP2 SWAP1 POP SWAP3 SWAP2 POP POP JUMP JUMPDEST PUSH1 0x0 PUSH1 0x20 DUP3 DUP5 SUB SLT ISZERO PUSH2 0x1611 JUMPI PUSH2 0x1610 PUSH2 0x1353 JUMP JUMPDEST JUMPDEST PUSH1 0x0 DUP3 ADD CALLDATALOAD PUSH8 0xFFFFFFFFFFFFFFFF DUP2 GT ISZERO PUSH2 0x162F JUMPI PUSH2 0x162E PUSH2 0x1358 JUMP JUMPDEST JUMPDEST PUSH2 0x163B DUP5 DUP3 DUP6 ADD PUSH2 0x15DC JUMP JUMPDEST SWAP2 POP POP SWAP3 SWAP2 POP POP JUMP JUMPDEST PUSH2 0x164D DUP2 PUSH2 0x159B JUMP JUMPDEST DUP2 EQ PUSH2 0x1658 JUMPI PUSH1 0x0 DUP1 REVERT JUMPDEST POP JUMP JUMPDEST PUSH1 0x0 DUP2 CALLDATALOAD SWAP1 POP PUSH2 0x166A DUP2 PUSH2 0x1644 JUMP JUMPDEST SWAP3 SWAP2 POP POP JUMP JUMPDEST PUSH1 0x0 PUSH1 0x20 DUP3 DUP5 SUB SLT ISZERO PUSH2 0x1686 JUMPI PUSH2 0x1685 PUSH2 0x1353 JUMP JUMPDEST JUMPDEST PUSH1 0x0 PUSH2 0x1694 DUP5 DUP3 DUP6 ADD PUSH2 0x165B JUMP JUMPDEST SWAP2 POP POP SWAP3 SWAP2 POP POP JUMP JUMPDEST PUSH1 0x0 DUP3 DUP3 MSTORE PUSH1 0x20 DUP3 ADD SWAP1 POP SWAP3 SWAP2 POP POP JUMP JUMPDEST PUSH32 0x54686520656C656374696F6E2068617320656E64656420616C72656164790000 PUSH1 0x0 DUP3 ADD MSTORE POP JUMP JUMPDEST PUSH1 0x0 PUSH2 0x16E4 PUSH1 0x1E DUP4 PUSH2 0x169D JUMP JUMPDEST SWAP2 POP PUSH2 0x16EF DUP3 PUSH2 0x16AE JUMP JUMPDEST PUSH1 0x20 DUP3 ADD SWAP1 POP SWAP2 SWAP1 POP JUMP JUMPDEST PUSH1 0x0 PUSH1 0x20 DUP3 ADD SWAP1 POP DUP2 DUP2 SUB PUSH1 0x0 DUP4 ADD MSTORE PUSH2 0x1713 DUP2 PUSH2 0x16D7 JUMP JUMPDEST SWAP1 POP SWAP2 SWAP1 POP JUMP JUMPDEST PUSH1 0x0 DUP2 SWAP1 POP SWAP2 SWAP1 POP JUMP JUMPDEST PUSH1 0x0 DUP2 SWAP1 POP SWAP2 SWAP1 POP JUMP JUMPDEST PUSH1 0x0 PUSH2 0x1749 PUSH2 0x1744 PUSH2 0x173F DUP5 PUSH2 0x1312 JUMP JUMPDEST PUSH2 0x1724 JUMP JUMPDEST PUSH2 0x171A JUMP JUMPDEST SWAP1 POP SWAP2 SWAP1 POP JUMP JUMPDEST PUSH2 0x1759 DUP2 PUSH2 0x172E JUMP JUMPDEST DUP3 MSTORE POP POP JUMP JUMPDEST PUSH1 0x0 PUSH1 0x20 DUP3 ADD SWAP1 POP PUSH2 0x1774 PUSH1 0x0 DUP4 ADD DUP5 PUSH2 0x1750 JUMP JUMPDEST SWAP3 SWAP2 POP POP JUMP JUMPDEST PUSH32 0x537461746573206D7573742068617665206174206C6561737420312073656174 PUSH1 0x0 DUP3 ADD MSTORE POP JUMP JUMPDEST PUSH1 0x0 PUSH2 0x17B0 PUSH1 0x20 DUP4 PUSH2 0x169D JUMP JUMPDEST SWAP2 POP PUSH2 0x17BB DUP3 PUSH2 0x177A JUMP JUMPDEST PUSH1 0x20 DUP3 ADD SWAP1 POP SWAP2 SWAP1 POP JUMP JUMPDEST PUSH1 0x0 PUSH1 0x20 DUP3 ADD SWAP1 POP DUP2 DUP2 SUB PUSH1 0x0 DUP4 ADD MSTORE PUSH2 0x17DF DUP2 PUSH2 0x17A3 JUMP JUMPDEST SWAP1 POP SWAP2 SWAP1 POP JUMP JUMPDEST PUSH32 0x54686572652063616E6E6F742062652061207469650000000000000000000000 PUSH1 0x0 DUP3 ADD MSTORE POP JUMP JUMPDEST PUSH1 0x0 PUSH2 0x181C PUSH1 0x15 DUP4 PUSH2 0x169D JUMP JUMPDEST SWAP2 POP PUSH2 0x1827 DUP3 PUSH2 0x17E6 JUMP JUMPDEST PUSH1 0x20 DUP3 ADD SWAP1 POP SWAP2 SWAP1 POP JUMP JUMPDEST PUSH1 0x0 PUSH1 0x20 DUP3 ADD SWAP1 POP DUP2 DUP2 SUB PUSH1 0x0 DUP4 ADD MSTORE PUSH2 0x184B DUP2 PUSH2 0x180F JUMP JUMPDEST SWAP1 POP SWAP2 SWAP1 POP JUMP JUMPDEST PUSH1 0x0 DUP1 REVERT JUMPDEST PUSH1 0x0 DUP1 REVERT JUMPDEST PUSH1 0x0 DUP1 REVERT JUMPDEST PUSH1 0x0 DUP1 DUP4 CALLDATALOAD PUSH1 0x1 PUSH1 0x20 SUB DUP5 CALLDATASIZE SUB SUB DUP2 SLT PUSH2 0x187E JUMPI PUSH2 0x187D PUSH2 0x1852 JUMP JUMPDEST JUMPDEST DUP1 DUP5 ADD SWAP3 POP DUP3 CALLDATALOAD SWAP2 POP PUSH8 0xFFFFFFFFFFFFFFFF DUP3 GT ISZERO PUSH2 0x18A0 JUMPI PUSH2 0x189F PUSH2 0x1857 JUMP JUMPDEST JUMPDEST PUSH1 0x20 DUP4 ADD SWAP3 POP PUSH1 0x1 DUP3 MUL CALLDATASIZE SUB DUP4 SGT ISZERO PUSH2 0x18BC JUMPI PUSH2 0x18BB PUSH2 0x185C JUMP JUMPDEST JUMPDEST POP SWAP3 POP SWAP3 SWAP1 POP JUMP JUMPDEST PUSH1 0x0 DUP2 SWAP1 POP SWAP3 SWAP2 POP POP JUMP JUMPDEST PUSH1 0x0 PUSH2 0x18DB DUP4 DUP6 PUSH2 0x18C4 JUMP JUMPDEST SWAP4 POP PUSH2 0x18E8 DUP4 DUP6 DUP5 PUSH2 0x1424 JUMP JUMPDEST DUP3 DUP5 ADD SWAP1 POP SWAP4 SWAP3 POP POP POP JUMP JUMPDEST PUSH1 0x0 PUSH2 0x1901 DUP3 DUP5 DUP7 PUSH2 0x18CF JUMP JUMPDEST SWAP2 POP DUP2 SWAP1 POP SWAP4 SWAP3 POP POP POP JUMP JUMPDEST PUSH32 0x5468697320737461746520726573756C742077617320616C7265616479207375 PUSH1 0x0 DUP3 ADD MSTORE PUSH32 0x626D697474656421000000000000000000000000000000000000000000000000 PUSH1 0x20 DUP3 ADD MSTORE POP JUMP JUMPDEST PUSH1 0x0 PUSH2 0x1969 PUSH1 0x28 DUP4 PUSH2 0x169D JUMP JUMPDEST SWAP2 POP PUSH2 0x1974 DUP3 PUSH2 0x190D JUMP JUMPDEST PUSH1 0x40 DUP3 ADD SWAP1 POP SWAP2 SWAP1 POP JUMP JUMPDEST PUSH1 0x0 PUSH1 0x20 DUP3 ADD SWAP1 POP DUP2 DUP2 SUB PUSH1 0x0 DUP4 ADD MSTORE PUSH2 0x1998 DUP2 PUSH2 0x195C JUMP JUMPDEST SWAP1 POP SWAP2 SWAP1 POP JUMP JUMPDEST PUSH32 0x4E487B7100000000000000000000000000000000000000000000000000000000 PUSH1 0x0 MSTORE PUSH1 0x11 PUSH1 0x4 MSTORE PUSH1 0x24 PUSH1 0x0 REVERT JUMPDEST PUSH1 0x0 PUSH2 0x19D9 DUP3 PUSH2 0x1312 JUMP JUMPDEST SWAP2 POP PUSH2 0x19E4 DUP4 PUSH2 0x1312 JUMP JUMPDEST SWAP3 POP DUP3 PUSH1 0xFF SUB DUP3 GT ISZERO PUSH2 0x19FA JUMPI PUSH2 0x19F9 PUSH2 0x199F JUMP JUMPDEST JUMPDEST DUP3 DUP3 ADD SWAP1 POP SWAP3 SWAP2 POP POP JUMP JUMPDEST PUSH1 0x0 PUSH2 0x1A11 DUP4 DUP6 PUSH2 0x169D JUMP JUMPDEST SWAP4 POP PUSH2 0x1A1E DUP4 DUP6 DUP5 PUSH2 0x1424 JUMP JUMPDEST PUSH2 0x1A27 DUP4 PUSH2 0x1367 JUMP JUMPDEST DUP5 ADD SWAP1 POP SWAP4 SWAP3 POP POP POP JUMP JUMPDEST PUSH1 0x0 PUSH1 0x60 DUP3 ADD SWAP1 POP PUSH2 0x1A47 PUSH1 0x0 DUP4 ADD DUP8 PUSH2 0x131F JUMP JUMPDEST PUSH2 0x1A54 PUSH1 0x20 DUP4 ADD DUP7 PUSH2 0x131F JUMP JUMPDEST DUP2 DUP2 SUB PUSH1 0x40 DUP4 ADD MSTORE PUSH2 0x1A67 DUP2 DUP5 DUP7 PUSH2 0x1A05 JUMP JUMPDEST SWAP1 POP SWAP6 SWAP5 POP POP POP POP POP JUMP JUMPDEST PUSH32 0x4F776E61626C653A206E6577206F776E657220697320746865207A65726F2061 PUSH1 0x0 DUP3 ADD MSTORE PUSH32 0x6464726573730000000000000000000000000000000000000000000000000000 PUSH1 0x20 DUP3 ADD MSTORE POP JUMP JUMPDEST PUSH1 0x0 PUSH2 0x1ACE PUSH1 0x26 DUP4 PUSH2 0x169D JUMP JUMPDEST SWAP2 POP PUSH2 0x1AD9 DUP3 PUSH2 0x1A72 JUMP JUMPDEST PUSH1 0x40 DUP3 ADD SWAP1 POP SWAP2 SWAP1 POP JUMP JUMPDEST PUSH1 0x0 PUSH1 0x20 DUP3 ADD SWAP1 POP DUP2 DUP2 SUB PUSH1 0x0 DUP4 ADD MSTORE PUSH2 0x1AFD DUP2 PUSH2 0x1AC1 JUMP JUMPDEST SWAP1 POP SWAP2 SWAP1 POP JUMP JUMPDEST PUSH32 0x4F776E61626C653A2063616C6C6572206973206E6F7420746865206F776E6572 PUSH1 0x0 DUP3 ADD MSTORE POP JUMP JUMPDEST PUSH1 0x0 PUSH2 0x1B3A PUSH1 0x20 DUP4 PUSH2 0x169D JUMP JUMPDEST SWAP2 POP PUSH2 0x1B45 DUP3 PUSH2 0x1B04 JUMP JUMPDEST PUSH1 0x20 DUP3 ADD SWAP1 POP SWAP2 SWAP1 POP JUMP JUMPDEST PUSH1 0x0 PUSH1 0x20 DUP3 ADD SWAP1 POP DUP2 DUP2 SUB PUSH1 0x0 DUP4 ADD MSTORE PUSH2 0x1B69 DUP2 PUSH2 0x1B2D JUMP JUMPDEST SWAP1 POP SWAP2 SWAP1 POP JUMP INVALID LOG2 PUSH5 0x6970667358 0x22 SLT KECCAK256 PUSH13 0xDAC8A85831AF4483A6DE0FAE79 PUSH30 0xC2A855C3D3B3E949EACC07DA15BF39875264736F6C634300080900330000 "
        },
        "methodIdentifiers": {
          "BIDEN()": "69b36bd4",
          "TRUMP()": "2d78d8e5",
          "currentLeader()": "ac4bd53a",
          "electionEnded()": "c94ca9e3",
          "endElection()": "59f78468",
          "owner()": "8da5cb5b",
          "renounceOwnership()": "715018a6",
          "resultsSubmitted(string)": "37ad98ec",
          "seats(uint8)": "713d87c5",
          "submitStateResult((string,uint256,uint256,uint8))": "e494a883",
          "transferOwnership(address)": "f2fde38b"
        }
      }
    }
  }
}