{
  "_format": "hh-sol-artifact-1",
  "contractName": "USElection",
  "sourceName": "contracts/USElection.sol",
  "abi": [
    {
      "anonymous": false,
      "inputs": [
        {
          "indexed": false,
          "internalType": "uint256",
          "name": "winner",
          "type": "uint256"
        }
      ],
      "name": "LogElectionEnded",
      "type": "event"
    },
    {
      "anonymous": false,
      "inputs": [
        {
          "indexed": false,
          "internalType": "uint8",
          "name": "winner",
          "type": "uint8"
        },
        {
          "indexed": false,
          "internalType": "uint8",
          "name": "stateSeats",
          "type": "uint8"
        },
        {
          "indexed": false,
          "internalType": "string",
          "name": "state",
          "type": "string"
        }
      ],
      "name": "LogStateResult",
      "type": "event"
    },
    {
      "anonymous": false,
      "inputs": [
        {
          "indexed": true,
          "internalType": "address",
          "name": "previousOwner",
          "type": "address"
        },
        {
          "indexed": true,
          "internalType": "address",
          "name": "newOwner",
          "type": "address"
        }
      ],
      "name": "OwnershipTransferred",
      "type": "event"
    },
    {
      "inputs": [],
      "name": "BIDEN",
      "outputs": [
        {
          "internalType": "uint8",
          "name": "",
          "type": "uint8"
        }
      ],
      "stateMutability": "view",
      "type": "function"
    },
    {
      "inputs": [],
      "name": "TRUMP",
      "outputs": [
        {
          "internalType": "uint8",
          "name": "",
          "type": "uint8"
        }
      ],
      "stateMutability": "view",
      "type": "function"
    },
    {
      "inputs": [],
      "name": "currentLeader",
      "outputs": [
        {
          "internalType": "uint8",
          "name": "",
          "type": "uint8"
        }
      ],
      "stateMutability": "view",
      "type": "function"
    },
    {
      "inputs": [],
      "name": "electionEnded",
      "outputs": [
        {
          "internalType": "bool",
          "name": "",
          "type": "bool"
        }
      ],
      "stateMutability": "view",
      "type": "function"
    },
    {
      "inputs": [],
      "name": "endElection",
      "outputs": [],
      "stateMutability": "nonpayable",
      "type": "function"
    },
    {
      "inputs": [],
      "name": "owner",
      "outputs": [
        {
          "internalType": "address",
          "name": "",
          "type": "address"
        }
      ],
      "stateMutability": "view",
      "type": "function"
    },
    {
      "inputs": [],
      "name": "renounceOwnership",
      "outputs": [],
      "stateMutability": "nonpayable",
      "type": "function"
    },
    {
      "inputs": [
        {
          "internalType": "string",
          "name": "",
          "type": "string"
        }
      ],
      "name": "resultsSubmitted",
      "outputs": [
        {
          "internalType": "bool",
          "name": "",
          "type": "bool"
        }
      ],
      "stateMutability": "view",
      "type": "function"
    },
    {
      "inputs": [
        {
          "internalType": "uint8",
          "name": "",
          "type": "uint8"
        }
      ],
      "name": "seats",
      "outputs": [
        {
          "internalType": "uint8",
          "name": "",
          "type": "uint8"
        }
      ],
      "stateMutability": "view",
      "type": "function"
    },
    {
      "inputs": [
        {
          "components": [
            {
              "internalType": "string",
              "name": "name",
              "type": "string"
            },
            {
              "internalType": "uint256",
              "name": "votesBiden",
              "type": "uint256"
            },
            {
              "internalType": "uint256",
              "name": "votesTrump",
              "type": "uint256"
            },
            {
              "internalType": "uint8",
              "name": "stateSeats",
              "type": "uint8"
            }
          ],
          "internalType": "struct USElection.StateResult",
          "name": "result",
          "type": "tuple"
        }
      ],
      "name": "submitStateResult",
      "outputs": [],
      "stateMutability": "nonpayable",
      "type": "function"
    },
    {
      "inputs": [
        {
          "internalType": "address",
          "name": "newOwner",
          "type": "address"
        }
      ],
      "name": "transferOwnership",
      "outputs": [],
      "stateMutability": "nonpayable",
      "type": "function"
    }
  ],
  "bytecode": "0x608060405234801561001057600080fd5b5061002d61002261003260201b60201c565b61003a60201b60201c565b6100fe565b600033905090565b60008060009054906101000a900473ffffffffffffffffffffffffffffffffffffffff169050816000806101000a81548173ffffffffffffffffffffffffffffffffffffffff021916908373ffffffffffffffffffffffffffffffffffffffff1602179055508173ffffffffffffffffffffffffffffffffffffffff168173ffffffffffffffffffffffffffffffffffffffff167f8be0079c531659141344cd1fd0a4f28419497f9722a3daafe3b4186f6b6457e060405160405180910390a35050565b6111278061010d6000396000f3fe608060405234801561001057600080fd5b50600436106100a95760003560e01c8063715018a611610071578063715018a6146101545780638da5cb5b1461015e578063ac4bd53a1461017c578063c94ca9e31461019a578063e494a883146101b8578063f2fde38b146101d4576100a9565b80632d78d8e5146100ae57806337ad98ec146100cc57806359f78468146100fc57806369b36bd414610106578063713d87c514610124575b600080fd5b6100b66101f0565b6040516100c391906108af565b60405180910390f35b6100e660048036038101906100e19190610a24565b6101f5565b6040516100f39190610a88565b60405180910390f35b61010461022b565b005b61010e6102de565b60405161011b91906108af565b60405180910390f35b61013e60048036038101906101399190610acf565b6102e3565b60405161014b91906108af565b60405180910390f35b61015c610303565b005b610166610317565b6040516101739190610b3d565b60405180910390f35b610184610340565b60405161019191906108af565b60405180910390f35b6101a2610414565b6040516101af9190610a88565b60405180910390f35b6101d260048036038101906101cd9190610b7c565b610427565b005b6101ee60048036038101906101e99190610bf1565b6106c5565b005b600281565b6002818051602081018201805184825260208301602085012081835280955050505050506000915054906101000a900460ff1681565b610233610749565b600060149054906101000a900460ff1615610283576040517f08c379a000000000000000000000000000000000000000000000000000000000815260040161027a90610c7b565b60405180910390fd5b6001600060146101000a81548160ff0219169083151502179055507faacb23683ec1a0e9b52f9a6264edf58ad322ac62079d65ea7363a2d400f439f46102c7610340565b6040516102d49190610ce0565b60405180910390a1565b600181565b60016020528060005260406000206000915054906101000a900460ff1681565b61030b610749565b61031560006107c7565b565b60008060009054906101000a900473ffffffffffffffffffffffffffffffffffffffff16905090565b600060016000600260ff1660ff16815260200190815260200160002060009054906101000a900460ff1660ff1660016000600160ff1660ff16815260200190815260200160002060009054906101000a900460ff1660ff1611156103a75760019050610411565b60016000600160ff1660ff16815260200190815260200160002060009054906101000a900460ff1660ff1660016000600260ff1660ff16815260200190815260200160002060009054906101000a900460ff1660ff16111561040c5760029050610411565b600090505b90565b600060149054906101000a900460ff1681565b61042f610749565b600060149054906101000a900460ff161561047f576040517f08c379a000000000000000000000000000000000000000000000000000000000815260040161047690610c7b565b60405180910390fd5b60008160600160208101906104949190610acf565b60ff16116104d7576040517f08c379a00000000000000000000000000000000000000000000000000000000081526004016104ce90610d47565b60405180910390fd5b806040013581602001351415610522576040517f08c379a000000000000000000000000000000000000000000000000000000000815260040161051990610db3565b60405180910390fd5b60028180600001906105349190610de2565b604051610542929190610e75565b908152602001604051809103902060009054906101000a900460ff161561059e576040517f08c379a000000000000000000000000000000000000000000000000000000000815260040161059590610f00565b60405180910390fd5b60008160400135826020013511156105b957600190506105be565b600290505b8160600160208101906105d19190610acf565b600160008360ff1660ff16815260200190815260200160002060008282829054906101000a900460ff166106059190610f4f565b92506101000a81548160ff021916908360ff160217905550600160028380600001906106319190610de2565b60405161063f929190610e75565b908152602001604051809103902060006101000a81548160ff0219169083151502179055507fa2e71fe38f1afa3762cf9d2ea7bb6a4d272a90fd6f9392f3acedd3b542046b46818360600160208101906106999190610acf565b8480600001906106a99190610de2565b6040516106b99493929190610fb3565b60405180910390a15050565b6106cd610749565b600073ffffffffffffffffffffffffffffffffffffffff168173ffffffffffffffffffffffffffffffffffffffff16141561073d576040517f08c379a000000000000000000000000000000000000000000000000000000000815260040161073490611065565b60405180910390fd5b610746816107c7565b50565b61075161088b565b73ffffffffffffffffffffffffffffffffffffffff1661076f610317565b73ffffffffffffffffffffffffffffffffffffffff16146107c5576040517f08c379a00000000000000000000000000000000000000000000000000000000081526004016107bc906110d1565b60405180910390fd5b565b60008060009054906101000a900473ffffffffffffffffffffffffffffffffffffffff169050816000806101000a81548173ffffffffffffffffffffffffffffffffffffffff021916908373ffffffffffffffffffffffffffffffffffffffff1602179055508173ffffffffffffffffffffffffffffffffffffffff168173ffffffffffffffffffffffffffffffffffffffff167f8be0079c531659141344cd1fd0a4f28419497f9722a3daafe3b4186f6b6457e060405160405180910390a35050565b600033905090565b600060ff82169050919050565b6108a981610893565b82525050565b60006020820190506108c460008301846108a0565b92915050565b6000604051905090565b600080fd5b600080fd5b600080fd5b600080fd5b6000601f19601f8301169050919050565b7f4e487b7100000000000000000000000000000000000000000000000000000000600052604160045260246000fd5b610931826108e8565b810181811067ffffffffffffffff821117156109505761094f6108f9565b5b80604052505050565b60006109636108ca565b905061096f8282610928565b919050565b600067ffffffffffffffff82111561098f5761098e6108f9565b5b610998826108e8565b9050602081019050919050565b82818337600083830152505050565b60006109c76109c284610974565b610959565b9050828152602081018484840111156109e3576109e26108e3565b5b6109ee8482856109a5565b509392505050565b600082601f830112610a0b57610a0a6108de565b5b8135610a1b8482602086016109b4565b91505092915050565b600060208284031215610a3a57610a396108d4565b5b600082013567ffffffffffffffff811115610a5857610a576108d9565b5b610a64848285016109f6565b91505092915050565b60008115159050919050565b610a8281610a6d565b82525050565b6000602082019050610a9d6000830184610a79565b92915050565b610aac81610893565b8114610ab757600080fd5b50565b600081359050610ac981610aa3565b92915050565b600060208284031215610ae557610ae46108d4565b5b6000610af384828501610aba565b91505092915050565b600073ffffffffffffffffffffffffffffffffffffffff82169050919050565b6000610b2782610afc565b9050919050565b610b3781610b1c565b82525050565b6000602082019050610b526000830184610b2e565b92915050565b600080fd5b600060808284031215610b7357610b72610b58565b5b81905092915050565b600060208284031215610b9257610b916108d4565b5b600082013567ffffffffffffffff811115610bb057610baf6108d9565b5b610bbc84828501610b5d565b91505092915050565b610bce81610b1c565b8114610bd957600080fd5b50565b600081359050610beb81610bc5565b92915050565b600060208284031215610c0757610c066108d4565b5b6000610c1584828501610bdc565b91505092915050565b600082825260208201905092915050565b7f54686520656c656374696f6e2068617320656e64656420616c72656164790000600082015250565b6000610c65601e83610c1e565b9150610c7082610c2f565b602082019050919050565b60006020820190508181036000830152610c9481610c58565b9050919050565b6000819050919050565b6000819050919050565b6000610cca610cc5610cc084610893565b610ca5565b610c9b565b9050919050565b610cda81610caf565b82525050565b6000602082019050610cf56000830184610cd1565b92915050565b7f537461746573206d7573742068617665206174206c6561737420312073656174600082015250565b6000610d31602083610c1e565b9150610d3c82610cfb565b602082019050919050565b60006020820190508181036000830152610d6081610d24565b9050919050565b7f54686572652063616e6e6f742062652061207469650000000000000000000000600082015250565b6000610d9d601583610c1e565b9150610da882610d67565b602082019050919050565b60006020820190508181036000830152610dcc81610d90565b9050919050565b600080fd5b600080fd5b600080fd5b60008083356001602003843603038112610dff57610dfe610dd3565b5b80840192508235915067ffffffffffffffff821115610e2157610e20610dd8565b5b602083019250600182023603831315610e3d57610e3c610ddd565b5b509250929050565b600081905092915050565b6000610e5c8385610e45565b9350610e698385846109a5565b82840190509392505050565b6000610e82828486610e50565b91508190509392505050565b7f5468697320737461746520726573756c742077617320616c726561647920737560008201527f626d697474656421000000000000000000000000000000000000000000000000602082015250565b6000610eea602883610c1e565b9150610ef582610e8e565b604082019050919050565b60006020820190508181036000830152610f1981610edd565b9050919050565b7f4e487b7100000000000000000000000000000000000000000000000000000000600052601160045260246000fd5b6000610f5a82610893565b9150610f6583610893565b92508260ff03821115610f7b57610f7a610f20565b5b828201905092915050565b6000610f928385610c1e565b9350610f9f8385846109a5565b610fa8836108e8565b840190509392505050565b6000606082019050610fc860008301876108a0565b610fd560208301866108a0565b8181036040830152610fe8818486610f86565b905095945050505050565b7f4f776e61626c653a206e6577206f776e657220697320746865207a65726f206160008201527f6464726573730000000000000000000000000000000000000000000000000000602082015250565b600061104f602683610c1e565b915061105a82610ff3565b604082019050919050565b6000602082019050818103600083015261107e81611042565b9050919050565b7f4f776e61626c653a2063616c6c6572206973206e6f7420746865206f776e6572600082015250565b60006110bb602083610c1e565b91506110c682611085565b602082019050919050565b600060208201905081810360008301526110ea816110ae565b905091905056fea264697066735822122052b4b3228b46df3afeef39dbfbe8a422bd8b8aefb67f6c0cd2b337b26f7031b764736f6c63430008090033",
  "linkReferences": {},
  "deployedLinkReferences": {}
}