{
  "_format": "hh-sol-artifact-1",
  "contractName": "USElection",
  "sourceName": "contracts/USElection.sol",
  "abi": [
    {
      "anonymous": false,
      "inputs": [
        {
          "indexed": false,
          "internalType": "uint256",
          "name": "winner",
          "type": "uint256"
        }
      ],
      "name": "LogElectionEnded",
      "type": "event"
    },
    {
      "anonymous": false,
      "inputs": [
        {
          "indexed": false,
          "internalType": "uint8",
          "name": "winner",
          "type": "uint8"
        },
        {
          "indexed": false,
          "internalType": "uint8",
          "name": "stateSeats",
          "type": "uint8"
        },
        {
          "indexed": false,
          "internalType": "string",
          "name": "state",
          "type": "string"
        }
      ],
      "name": "LogStateResult",
      "type": "event"
    },
    {
      "anonymous": false,
      "inputs": [
        {
          "indexed": true,
          "internalType": "address",
          "name": "previousOwner",
          "type": "address"
        },
        {
          "indexed": true,
          "internalType": "address",
          "name": "newOwner",
          "type": "address"
        }
      ],
      "name": "OwnershipTransferred",
      "type": "event"
    },
    {
      "inputs": [],
      "name": "BIDEN",
      "outputs": [
        {
          "internalType": "uint8",
          "name": "",
          "type": "uint8"
        }
      ],
      "stateMutability": "view",
      "type": "function"
    },
    {
      "inputs": [],
      "name": "TRUMP",
      "outputs": [
        {
          "internalType": "uint8",
          "name": "",
          "type": "uint8"
        }
      ],
      "stateMutability": "view",
      "type": "function"
    },
    {
      "inputs": [],
      "name": "currentLeader",
      "outputs": [
        {
          "internalType": "uint8",
          "name": "",
          "type": "uint8"
        }
      ],
      "stateMutability": "view",
      "type": "function"
    },
    {
      "inputs": [],
      "name": "electionEnded",
      "outputs": [
        {
          "internalType": "bool",
          "name": "",
          "type": "bool"
        }
      ],
      "stateMutability": "view",
      "type": "function"
    },
    {
      "inputs": [],
      "name": "endElection",
      "outputs": [],
      "stateMutability": "nonpayable",
      "type": "function"
    },
    {
      "inputs": [],
      "name": "owner",
      "outputs": [
        {
          "internalType": "address",
          "name": "",
          "type": "address"
        }
      ],
      "stateMutability": "view",
      "type": "function"
    },
    {
      "inputs": [],
      "name": "renounceOwnership",
      "outputs": [],
      "stateMutability": "nonpayable",
      "type": "function"
    },
    {
      "inputs": [
        {
          "internalType": "string",
          "name": "",
          "type": "string"
        }
      ],
      "name": "resultsSubmitted",
      "outputs": [
        {
          "internalType": "bool",
          "name": "",
          "type": "bool"
        }
      ],
      "stateMutability": "view",
      "type": "function"
    },
    {
      "inputs": [
        {
          "internalType": "uint8",
          "name": "",
          "type": "uint8"
        }
      ],
      "name": "seats",
      "outputs": [
        {
          "internalType": "uint8",
          "name": "",
          "type": "uint8"
        }
      ],
      "stateMutability": "view",
      "type": "function"
    },
    {
      "inputs": [
        {
          "components": [
            {
              "internalType": "string",
              "name": "name",
              "type": "string"
            },
            {
              "internalType": "uint256",
              "name": "votesBiden",
              "type": "uint256"
            },
            {
              "internalType": "uint256",
              "name": "votesTrump",
              "type": "uint256"
            },
            {
              "internalType": "uint8",
              "name": "stateSeats",
              "type": "uint8"
            }
          ],
          "internalType": "struct USElection.StateResult",
          "name": "result",
          "type": "tuple"
        }
      ],
      "name": "submitStateResult",
      "outputs": [],
      "stateMutability": "nonpayable",
      "type": "function"
    },
    {
      "inputs": [
        {
          "internalType": "address",
          "name": "newOwner",
          "type": "address"
        }
      ],
      "name": "transferOwnership",
      "outputs": [],
      "stateMutability": "nonpayable",
      "type": "function"
    }
  ],
  "bytecode": "0x608060405234801561001057600080fd5b5061002d61002261003260201b60201c565b61003a60201b60201c565b6100fe565b600033905090565b60008060009054906101000a900473ffffffffffffffffffffffffffffffffffffffff169050816000806101000a81548173ffffffffffffffffffffffffffffffffffffffff021916908373ffffffffffffffffffffffffffffffffffffffff1602179055508173ffffffffffffffffffffffffffffffffffffffff168173ffffffffffffffffffffffffffffffffffffffff167f8be0079c531659141344cd1fd0a4f28419497f9722a3daafe3b4186f6b6457e060405160405180910390a35050565b611ba68061010d6000396000f3fe608060405234801561001057600080fd5b50600436106100a95760003560e01c8063715018a611610071578063715018a6146101545780638da5cb5b1461015e578063ac4bd53a1461017c578063c94ca9e31461019a578063e494a883146101b8578063f2fde38b146101d4576100a9565b80632d78d8e5146100ae57806337ad98ec146100cc57806359f78468146100fc57806369b36bd414610106578063713d87c514610124575b600080fd5b6100b66101f0565b6040516100c3919061132e565b60405180910390f35b6100e660048036038101906100e191906114a3565b6101f5565b6040516100f39190611507565b60405180910390f35b61010461022b565b005b61010e6104c2565b60405161011b919061132e565b60405180910390f35b61013e6004803603810190610139919061154e565b6104c7565b60405161014b919061132e565b60405180910390f35b61015c6104e7565b005b6101666104fb565b60405161017391906115bc565b60405180910390f35b610184610524565b604051610191919061132e565b60405180910390f35b6101a261088c565b6040516101af9190611507565b60405180910390f35b6101d260048036038101906101cd91906115fb565b61089f565b005b6101ee60048036038101906101e99190611670565b611141565b005b600281565b6002818051602081018201805184825260208301602085012081835280955050505050506000915054906101000a900460ff1681565b6102336111c5565b61025f7ffe71d23701cb92763588e7e6c436b0d8ac3416c0822abd7eac8d6354f50d59b360001b611243565b61028b7f5b46aae46bfa1ce171498d11b6a74cd303da923180038687f6db220410a780d560001b611243565b6102b77f7ca1b1e8b47e96f083622da1d1c2303856a0e29988bc05eab1aca807d0e52aa560001b611243565b6102e37f11d6b3881e5f0c2f20fb1fbe7052f61154eccdc398d915f1d87f8245e09042fb60001b611243565b600060149054906101000a900460ff1615610333576040517f08c379a000000000000000000000000000000000000000000000000000000000815260040161032a906116fa565b60405180910390fd5b61035f7fed9113f76bb5267463a2d7f1b6bc92b22272d471241f42f3707dd86d60b2ccde60001b611243565b61038b7fe727b2e08ec11e118164645003d0e287dd27c4ff9eee6c2c4e8a1af6d470a05d60001b611243565b6103b77fa8ee048e494c3f550a1bcb0574f4d643f1e77e55c5ddbc13fd516e748fb4b85360001b611243565b6103e37f3fa6cad5c21c027de610b641b4f2a40d3985be9ca94cb9feb34632fddb67a84460001b611243565b61040f7f34963e883512b87cb7e547552e305cf448043e4a92a2fa3f982ef86e8b9b4aff60001b611243565b6001600060146101000a81548160ff0219169083151502179055506104567f5286f40ee4683471ea647773db003b2c24e9cdf7120aef3c48f9ed3fd690dce860001b611243565b6104827f1f9485d619b9dbce41991a3455249ab8599074c311540b23b0dc270d38d6474960001b611243565b7faacb23683ec1a0e9b52f9a6264edf58ad322ac62079d65ea7363a2d400f439f46104ab610524565b6040516104b8919061175f565b60405180910390a1565b600181565b60016020528060005260406000206000915054906101000a900460ff1681565b6104ef6111c5565b6104f96000611246565b565b60008060009054906101000a900473ffffffffffffffffffffffffffffffffffffffff16905090565b60006105527f7ba57ad5c47336fb3a89fcf36e3e93fdef66c8aa07bdd88b1d0c2b90a3610de860001b611243565b61057e7f9c33c4253013eb04685f2376fb915bfc1148c615b8990d26150cf86194fd102260001b611243565b6105aa7f6a7073672b62b16aefc299b0fe141113b8132fb1812c85bca0348028e3f49f1d60001b611243565b60016000600260ff1660ff16815260200190815260200160002060009054906101000a900460ff1660ff1660016000600160ff1660ff16815260200190815260200160002060009054906101000a900460ff1660ff161115610693576106327f9e6070ee18a469026843a692112ac7ead5b5f0a0190ee3ae86d26c21cdffc2b260001b611243565b61065e7f38856fd788c59c2e09ab1c2c040704106c4cb30d76ffd42bb0b7ae8472fe253860001b611243565b61068a7ff03fc932b7dfd6b2cef1d4bb1a5a8e478569796aa4cb747a994c6e71e56a75eb60001b611243565b60019050610889565b6106bf7fc8b09a4d5a2ecff98f23f8680ceb856e0538a6ffc68d7e7b25fa5b1e5574acb360001b611243565b6106eb7fcb051e09cac7e192ffeae6c4c7cdfcde4a18ab91f01d789ca1d3ae1b994c1e8b60001b611243565b6107177fac9c9e5cac94a2f7d547d323bb446a880e544f65c5a0ad4b3ce8afd4fc03cfb160001b611243565b60016000600160ff1660ff16815260200190815260200160002060009054906101000a900460ff1660ff1660016000600260ff1660ff16815260200190815260200160002060009054906101000a900460ff1660ff1611156108005761079f7fc373083e8f6cc8c60a3afa15d32dda7db2f8dc0f93658b7b7743305c3699cc6c60001b611243565b6107cb7fca6f56a56ef8b64c1e07525daca35a5f73fbeccaf44cca3f76d4dcea062ac92560001b611243565b6107f77f9ad14a34924ae03d0246f37a7ca20599d454b7dfe9940e4846286e3142a3ad7360001b611243565b60029050610889565b61082c7f76b2260462fac28f36c15f3b63030d8820107ef3329aa73b975af99f40b5de8060001b611243565b6108587f7b79efe4d25057f7c8df091eeadfe112710d247da93c2fdd8f349914cf152e3b60001b611243565b6108847fbfd52e20eafdefc6a3b1b892086f3eea165f5dc761c06bce526e77ceb03acaa360001b611243565b600090505b90565b600060149054906101000a900460ff1681565b6108a76111c5565b6108d37ffe71d23701cb92763588e7e6c436b0d8ac3416c0822abd7eac8d6354f50d59b360001b611243565b6108ff7f5b46aae46bfa1ce171498d11b6a74cd303da923180038687f6db220410a780d560001b611243565b61092b7f7ca1b1e8b47e96f083622da1d1c2303856a0e29988bc05eab1aca807d0e52aa560001b611243565b6109577f11d6b3881e5f0c2f20fb1fbe7052f61154eccdc398d915f1d87f8245e09042fb60001b611243565b600060149054906101000a900460ff16156109a7576040517f08c379a000000000000000000000000000000000000000000000000000000000815260040161099e906116fa565b60405180910390fd5b6109d37fed9113f76bb5267463a2d7f1b6bc92b22272d471241f42f3707dd86d60b2ccde60001b611243565b6109ff7fe727b2e08ec11e118164645003d0e287dd27c4ff9eee6c2c4e8a1af6d470a05d60001b611243565b610a2b7f60cf9081c83e0652bfa9060099204f8f21b3dfeb1a2b0399ee195892e188ee1760001b611243565b610a577f5fbec4cb4e052e9a1d707cf57b5e9f0f65956ded8df1667467c7a55d5af1c17860001b611243565b610a837fddb324d0f3edb670fcb29e4cd2f409e0b2f5a49ffa5039f27fa83e654b68b8cb60001b611243565b610aaf7fc103226b89640d36141bac250b81a1813852aeac3097cd36fa6a5460353ac81e60001b611243565b6000816060016020810190610ac4919061154e565b60ff1611610b07576040517f08c379a0000000000000000000000000000000000000000000000000000000008152600401610afe906117c6565b60405180910390fd5b610b337f368d8956b5d89044bd3f7426ff3ad712b057d1c79b5e942fea2a78b41ec1a5b960001b611243565b610b5f7f32d94da6b741ff941a7ddea0e179e3df9263f4d928c9acf2ed0f1c9cd2ad5f5360001b611243565b610b8b7f9ff12767cb7ce3ae7e8f740bf4e5ed16b7da908c62a867b147a075c41972cecb60001b611243565b610bb77f8570eb4d226a3332666812bfa64f71681f69d47c9365b8452bac6ae5dcaafe4760001b611243565b806040013581602001351415610c02576040517f08c379a0000000000000000000000000000000000000000000000000000000008152600401610bf990611832565b60405180910390fd5b610c2e7fc265e3c6512fcee29ad8dde988ae460b09424bdccead5ce8f1d615cb8ee9d46760001b611243565b610c5a7f603f8a0b07f78d808fd2f7471dae2f973f8a3076020fb79956787627579db6f760001b611243565b610c867ffbbdfc33e3385d31e8e1526b89c539f204a7affd97ccbb780a2dc5698e6d6d7560001b611243565b610cb27fca0f8acf65cac643ff68a086331f2cff8b37006b16ca8c82dad51199b3ca18de60001b611243565b6002818060000190610cc49190611861565b604051610cd29291906118f4565b908152602001604051809103902060009054906101000a900460ff1615610d2e576040517f08c379a0000000000000000000000000000000000000000000000000000000008152600401610d259061197f565b60405180910390fd5b610d5a7fd79b07ff5b877f566ddd2d5207048a78298ab2ca530641454b4981eae5b8c02f60001b611243565b610d867fda6643e716b4839accba57d9e4bca9a1d5eca2b79213c8969f8a481ec59e81b460001b611243565b610db27fcc8b49f23df26b659ce0eaabb885c4b88a55fab87667135d21cd7ecc48f161ff60001b611243565b6000610de07f98961ddb9911f7912c504b29681515a5c0a7875274554bb826bf4b2f742e4f7360001b611243565b610e0c7f10b79ae77b8d5d00285b10051b25e828b35304c46c605854fa977405a8073e5e60001b611243565b816040013582602001351115610ea957610e487f9e5fa28c1d4148ebb914906004f6d1edaa374126b8563b1d1d315dc20fdd902c60001b611243565b610e747f7b81eaf09de99f156da3f51ab967f1054ae3ee4c2494c2ca5ccdcdeb1858adaf60001b611243565b610ea07f66f725d6d3b07cba9506d91e9785b9092ae47cbaa771d7a5ad94e477c9638ce660001b611243565b60019050610f32565b610ed57f845faa46ae387399bfa4fae71fbbeb3dfd2239cc51d6ef5f44e7180fbe10e34b60001b611243565b610f017fc2681118af7c3e33eae1f1608d6c324a67975d24b7b9bbb7a5f7a16d837e9b0e60001b611243565b610f2d7ff110d83d2e479fa4c9003c5779c8692d024fcd929aec3c637d47ac0a9801e02260001b611243565b600290505b610f5e7f933b60c8fd5f0458a91946af7dce7dc585224b158ee77cfcd07f67d59f770e5a60001b611243565b610f8a7ffa13362a55903478e9ceabe3a962680aebd287570acb827df54383fffaed1f5160001b611243565b816060016020810190610f9d919061154e565b600160008360ff1660ff16815260200190815260200160002060008282829054906101000a900460ff16610fd191906119ce565b92506101000a81548160ff021916908360ff1602179055506110157fc58b8c4d756e1723bbdc506a2bc6bca3dd260b268dc12a569872b7c9c10c3bed60001b611243565b6110417f369a1e65279662eab8d4f9c0aad29342c3f186c4c098ca55c006c6b5e4c2c31a60001b611243565b600160028380600001906110559190611861565b6040516110639291906118f4565b908152602001604051809103902060006101000a81548160ff0219169083151502179055506110b47f24b4517eb442d1ac4eb6422f09e3f051998b59f5c4b9ee8830c9cae78014e3f960001b611243565b6110e07f7eaedca310f16641a6f7f63ddd285729c42a3473979c65b1e1a77d1b1cfc7ee060001b611243565b7fa2e71fe38f1afa3762cf9d2ea7bb6a4d272a90fd6f9392f3acedd3b542046b4681836060016020810190611115919061154e565b8480600001906111259190611861565b6040516111359493929190611a32565b60405180910390a15050565b6111496111c5565b600073ffffffffffffffffffffffffffffffffffffffff168173ffffffffffffffffffffffffffffffffffffffff1614156111b9576040517f08c379a00000000000000000000000000000000000000000000000000000000081526004016111b090611ae4565b60405180910390fd5b6111c281611246565b50565b6111cd61130a565b73ffffffffffffffffffffffffffffffffffffffff166111eb6104fb565b73ffffffffffffffffffffffffffffffffffffffff1614611241576040517f08c379a000000000000000000000000000000000000000000000000000000000815260040161123890611b50565b60405180910390fd5b565b50565b60008060009054906101000a900473ffffffffffffffffffffffffffffffffffffffff169050816000806101000a81548173ffffffffffffffffffffffffffffffffffffffff021916908373ffffffffffffffffffffffffffffffffffffffff1602179055508173ffffffffffffffffffffffffffffffffffffffff168173ffffffffffffffffffffffffffffffffffffffff167f8be0079c531659141344cd1fd0a4f28419497f9722a3daafe3b4186f6b6457e060405160405180910390a35050565b600033905090565b600060ff82169050919050565b61132881611312565b82525050565b6000602082019050611343600083018461131f565b92915050565b6000604051905090565b600080fd5b600080fd5b600080fd5b600080fd5b6000601f19601f8301169050919050565b7f4e487b7100000000000000000000000000000000000000000000000000000000600052604160045260246000fd5b6113b082611367565b810181811067ffffffffffffffff821117156113cf576113ce611378565b5b80604052505050565b60006113e2611349565b90506113ee82826113a7565b919050565b600067ffffffffffffffff82111561140e5761140d611378565b5b61141782611367565b9050602081019050919050565b82818337600083830152505050565b6000611446611441846113f3565b6113d8565b90508281526020810184848401111561146257611461611362565b5b61146d848285611424565b509392505050565b600082601f83011261148a5761148961135d565b5b813561149a848260208601611433565b91505092915050565b6000602082840312156114b9576114b8611353565b5b600082013567ffffffffffffffff8111156114d7576114d6611358565b5b6114e384828501611475565b91505092915050565b60008115159050919050565b611501816114ec565b82525050565b600060208201905061151c60008301846114f8565b92915050565b61152b81611312565b811461153657600080fd5b50565b60008135905061154881611522565b92915050565b60006020828403121561156457611563611353565b5b600061157284828501611539565b91505092915050565b600073ffffffffffffffffffffffffffffffffffffffff82169050919050565b60006115a68261157b565b9050919050565b6115b68161159b565b82525050565b60006020820190506115d160008301846115ad565b92915050565b600080fd5b6000608082840312156115f2576115f16115d7565b5b81905092915050565b60006020828403121561161157611610611353565b5b600082013567ffffffffffffffff81111561162f5761162e611358565b5b61163b848285016115dc565b91505092915050565b61164d8161159b565b811461165857600080fd5b50565b60008135905061166a81611644565b92915050565b60006020828403121561168657611685611353565b5b60006116948482850161165b565b91505092915050565b600082825260208201905092915050565b7f54686520656c656374696f6e2068617320656e64656420616c72656164790000600082015250565b60006116e4601e8361169d565b91506116ef826116ae565b602082019050919050565b60006020820190508181036000830152611713816116d7565b9050919050565b6000819050919050565b6000819050919050565b600061174961174461173f84611312565b611724565b61171a565b9050919050565b6117598161172e565b82525050565b60006020820190506117746000830184611750565b92915050565b7f537461746573206d7573742068617665206174206c6561737420312073656174600082015250565b60006117b060208361169d565b91506117bb8261177a565b602082019050919050565b600060208201905081810360008301526117df816117a3565b9050919050565b7f54686572652063616e6e6f742062652061207469650000000000000000000000600082015250565b600061181c60158361169d565b9150611827826117e6565b602082019050919050565b6000602082019050818103600083015261184b8161180f565b9050919050565b600080fd5b600080fd5b600080fd5b6000808335600160200384360303811261187e5761187d611852565b5b80840192508235915067ffffffffffffffff8211156118a05761189f611857565b5b6020830192506001820236038313156118bc576118bb61185c565b5b509250929050565b600081905092915050565b60006118db83856118c4565b93506118e8838584611424565b82840190509392505050565b60006119018284866118cf565b91508190509392505050565b7f5468697320737461746520726573756c742077617320616c726561647920737560008201527f626d697474656421000000000000000000000000000000000000000000000000602082015250565b600061196960288361169d565b91506119748261190d565b604082019050919050565b600060208201905081810360008301526119988161195c565b9050919050565b7f4e487b7100000000000000000000000000000000000000000000000000000000600052601160045260246000fd5b60006119d982611312565b91506119e483611312565b92508260ff038211156119fa576119f961199f565b5b828201905092915050565b6000611a11838561169d565b9350611a1e838584611424565b611a2783611367565b840190509392505050565b6000606082019050611a47600083018761131f565b611a54602083018661131f565b8181036040830152611a67818486611a05565b905095945050505050565b7f4f776e61626c653a206e6577206f776e657220697320746865207a65726f206160008201527f6464726573730000000000000000000000000000000000000000000000000000602082015250565b6000611ace60268361169d565b9150611ad982611a72565b604082019050919050565b60006020820190508181036000830152611afd81611ac1565b9050919050565b7f4f776e61626c653a2063616c6c6572206973206e6f7420746865206f776e6572600082015250565b6000611b3a60208361169d565b9150611b4582611b04565b602082019050919050565b60006020820190508181036000830152611b6981611b2d565b905091905056fea26469706673582212206cdac8a85831af4483a6de0fae797dc2a855c3d3b3e949eacc07da15bf39875264736f6c63430008090033",
  "linkReferences": {},
  "deployedLinkReferences": {}
}